:0300000002074BA9
:0C074B00787FE4F6D8FD75814902079222
:0308E100011E00F5
:1009A20075A15575A1AA75B98C75A98043B101E4E9
:0309B200F5A1228A
:0409E2007596EF22F5
:1009B5005389F0438902758A06758C06C28DD28CDF
:0309C500D2A92292
:10091C00EF75F00584FEC374F09EF5FFEFD39400E1
:10092C00748094804015AE1EEEC394047480948041
:0C093C0040F474FC251EF51E1F80E12213
:10096C001209A21209E21209B5D2AF1207D7120668
:0E097C00AD12052E1209D97F0112091C80F060
:03000B00020003ED
:05000300C28D051E3254
:1005FA0005010906A101050719E029E715002501EA
:10060A0075019508810295017508810395057501A3
:10061A0005081901290591029501750391039506AB
:10062A007508150025FF0507190029658100C01204
:10063A00010002000000406230004700010102038D
:10064A000109022200010100A05A09040000010365
:10065A00010000092111010001223F000705820360
:10066A00400001040309040E034300480035003525
:10067A00003200470010034B006500790062006FEA
:10068A00006100720000000000000000000000008D
:10069A000000000000000000000000000000000050
:0306AA000000004D
:0F08E4000922010000000000000000C109C10846
:10084E00782EE6FFC3944074809480221204AFC3C6
:10085E00782EE6951DF6783AE51D26F618E436F65E
:10086E00228F1D7E0078407C037D01227838860B16
:10087E0008E6FA08E6F9227E007D007B01020502F9
:0A088E00900343E0FE900342E022D5
:1007D700E4782FF618F6783BF6782CF618F6C2EA86
:1007E70075E206F5D1FE7F08FDFB7A007930120528
:1007F700027FC07A0379401208857F407A03790027
:10080700120885E4F5E275D18043D18053D1FB53BB
:10081700E2BFF5DF75ED0375EC4043EA0C75DE02C8
:1008270075DC02F5DD75E50375E40043EB0453EB76
:10083700FE75D412F5D5F5E343E22943D10175D806
:07084700FF75E107D2EA2270
:100948008D1CD3E51C12085340047F408002AF1C65
:100958008F1C7E0078007C037D011204AF851CD5B6
:0409680053D4FC2246
:060898008B188A19891A71
:10089E00E4F51BFFEFC39408748094805023AB18CB
:1008AE00AA19A91A8F827583001204D5FE74232FFC
:1008BE00F8E66E600974232FF8A606751B010F80EB
:1008CE00D3E51B600B7B007A0079227D0912094863
:0208DE00AF1B4E
:0108E00022F5
:0300430002004672
:0D004600C0E0C0F0C083C082C0D075D008FB
:1000530020D9030203A9E5D9543F700302037F2487
:10006300FC603524E4700302034024FC601924F48B
:100073006035240E60030203A775D500E5D454FC54
:100083004402F5D40203A775DF0063DE40E5DE54C6
:10009300FC4402F5DE0203A720DE030203A785DB8F
:1000A3001D63DE800203A785DB1DE51D6408600375
:1000B300020312900347E06006782E76FF800790D4
:1000C3000346E0782EF6751D00900341E0782FF685
:1000D300900340E05460604CE624FE603014602DD1
:1000E30024FA601B14601E146023240A701C7838E1
:1000F3007601087603087640782EE6F51D800E78A3
:100103003B7601800875DD008003751DFF782EE6C0
:10011300D3951D4002A61D12084E40057F400201E3
:10012300FD0201FD782FE6B40B004003020310909B
:100133000139F82828730202F302023D0203100278
:10014300027C02031002020D02015A020310020292
:1001530017020233020315900343E024FE601A14CE
:10016300602624E1606C2421707A783876FF087663
:1001730006087639751D12806E783876FF08760684
:1001830008764B751D22805F900342E014601614BD
:1001930060222402702D783876FF08760608766D83
:1001A300751D048042783876FF08760608767175E7
:1001B3001D0E8033783876FF08760608767F751D26
:1001C300108024783876FF08760608768F751D1E12
:1001D3008015783876FF0876050876FA751D3F088E
:1001E30076018003751DFF782EE6D3951D4002A688
:1001F3001D12084E40047F40800012086FC0081291
:10020300087AD00812085A020315900342E0782EA8
:10021300F6020315782BE6900340F0782EE6C3949C
:1002230001748094805003020315751D01020315A8
:10023300900342E0782BF6020315900340E0541F2D
:1002430064027032900344E024FE600E24FE6020BA
:10025300248060112402701E8000E5D454BC440243
:10026300F5D4020315E5DE54BC4402F5DE020315A2
:1002730053DE73020315020312900340E0541FFD83
:100283007C00701012088EFBEB64014E70030203B6
:1002930015020312ED64024C705412088EFDED4EEC
:1002A300704A900345E0FE900344E0FDEDFFEE70DD
:1002B30039EF24FE601624FE602624806018240291
:1002C3007028E5D454BF4403F5D48046E5D4547F65
:1002D300440CF5D4803CE5DE54BF4403F5DE8032A4
:1002E300E5DE547F440CF5DE802880238021801FC7
:1002F300900340E4F0A3F0782EE6FFC394027480E9
:1003030094804005751D0280098F1D80058000754E
:100313001DFFAF1D7E00EFF4700A782F76FF75DCAA
:10032300CF0203A7D3EF9440EE64809480500585F9
:100333001DDD800375DD0075DCC00203A7782FE6A1
:1003430024FB60251460042405702912084E400420
:100353007F40800012086FC00812087AD008120884
:100363005A851DDD63DC40803BE5E35480782E46EF
:10037300F5E3800375DD0075DC028028AFDBEF64F5
:1003830002701E900340E064017016A3E0FF30E0AA
:1003930004D2098002C209EF30E104D2088002C20C
:1003A3000863DC80C2D930D81675DC0275D41075A9
:1003B300DE1275E300C2DAC2D9C2D8783B760030C8
:1003C300DA0CC2DAE5DA30E208438702800375D833
:0103D300FF2A
:0B03D400D0D0D082D083D0F0D0E03237
:1009C800605C5E5A535455565F6157595B58626371
:0109D8005DC1
:1008F30008100000000000000000013C00013D0062
:10090300043E0000000001420001430004440000D3
:08091300000001480001490049
:10098A00E493FFAE11051174122EF8A60722C3E5EF
:08099A00119406748094802280
:04003C007F1BDFFE49
:01004000229D
:1006AD00E4FEFDD2B3D2B2D2B1D2B0F52020B00269
:1006BD000E0D20B1037E020D20B2037E030D20B37B
:1006CD00037E040DED7064C2B012003C20B1037EB8
:1006DD00050D20B2037E060D20B3037E070DD2B0AB
:1006ED00C2B112003C20B0037E080D20B2037E097A
:1006FD000D20B3037E0A0DD2B1C2B212003C20B060
:10070D00037E0B0D20B1037E0C0D20B3037E0D0D6A
:10071D00D2B2C2B312003C20B0037E0E0D20B10345
:10072D007E0F0D20B2037E100DD2B3EDD394017464
:0D073D008094805004783CA606783CE6FFCE
:01074A00228C
:10000E00783DE606243EF8A607783DE65403F678DA
:10001E003FE6FF18E6FEB507107840E6FDEFB505A2
:0D002E0008ED0866700308A6067842E6FF9C
:01003B0022A2
:10052E007E007F087D007B007A0079101205021292
:10053E0006AD12000EEF604A784966703E784306AB
:10054E00E6FD7C0064037022EFD3941174809480D6
:10055E005018E511C312099B5010EF9009C793FE76
:10056E00AB11051174122BF8A606D3ED9403EC64AF
:10057E00809480401478437603800E7849A607E471
:10058E008004E47849F67843F6E5B9A2E39204785C
:10059E0048E6062444F8A6207848E65403F6784444
:1005AE00E6522008E6522008E6522008E652203095
:1005BE00000B12099850069009C812098A30010BD7
:1005CE0012099850069009C912098A30020B1209B5
:1005DE009850069009CA12098A30030B12099850D6
:0B05EE00069009CB12098AE4F511FF0A
:0105F90022DF
:0909D9007B007A007910020898F5
:1007570002096CE493A3F8E493A34003F68001F243
:1007670008DFF48029E493A3F85407240CC8C333A3
:10077700C4540F4420C8834004F456800146F6DF72
:10078700E4800B01020408102040809008E1E47E19
:10079700019360BCA3FF543F30E509541FFEE49367
:1007A700A360010ECF54C025E060A840B8E493A32E
:1007B700FAE493A3F8E493A3C8C582C8CAC583CA59
:1007C700F0A3C8C582C8CAC583CADFE9DEE780BE11
:01091B0000DB
:1003DF00E709F608DFFA8046E709F208DFFA803E00
:1003EF0088828C83E709F0A3DFFA8032E309F608ED
:1003FF00DFFA8078E309F208DFFA807088828C8355
:10040F00E309F0A3DFFA806489828A83E0A3F60808
:10041F00DFFA805889828A83E0A3F208DFFA804CE2
:10042F0080D280FA80C680D4806980F280338010B9
:10043F0080A680EA809A80A880DA80E280CA803322
:10044F0089828A83ECFAE493A3C8C582C8CCC5839A
:10045F00CCF0A3C8C582C8CCC583CCDFE9DEE7806A
:10046F000D89828A83E493A3F608DFF9ECFAA9F0E9
:10047F00EDFB2289828A83ECFAE0A3C8C582C8CC3F
:10048F00C583CCF0A3C8C582C8CCC583CCDFEADE58
:10049F00E880DB89828A83E493A3F208DFF980CCBA
:1004AF0088F0EF60010E4E60C388F0ED2402B404B3
:1004BF000050B9F582EB2402B4040050AF2323455A
:0604CF00822390042F734C
:1004D500BB010CE58229F582E5833AF583E02250DC
:1004E50006E92582F8E622BBFE06E92582F8E22226
:0D04F500E58229F582E5833AF583E4932240
:10050200EF4E6012EF60010EEDBB010B89828A8310
:10051200F0A3DFFCDEFA2289F05007F709DFFCA91D
:0C052200F022BBFEFCF309DFFCA9F02274
:00000001FF
