:100F770075A15575A1AAE5B954F84404F5B9E4F586
:020F8700A122A5
:0E003300EF4E600905A1EF1F70F61E80F3224C
:100F4700CDEFCDCCEECCED4C600E7FE87E031200EA
:090F570033ED1D70F11C80EE2247
:040FBB0043C61022F7
:100CB000C29FD29EC29DC2CDC2CC438780900045C8
:100CC0001209F600000082E47B0AFAF9F890004568
:100CD000E0FCA3E0FDA3E0FEA3E0FF120958CCE88E
:100CE000CCCDE9CDCEEACECFEBCF900049EFF0905E
:100CF0000045E0FCA3E0FDA3E0FEA3E0FFE47B0AE7
:100D0000FAF9F81209589000451209EA900049E0F2
:100D1000C3940574809480401F900045E0FCA3E0DC
:100D2000FDA3E0FEA3E02401FFE43EFEE43DFDE47C
:100D30003CFC9000451209EAE589540F4420F589EE
:100D400043C9A0900045A3A3A3E0F404F58DD28E7F
:040D5000D299D29CC6
:010D5400227C
:080FAB003098FDC298AF9922B5
:080FB3008F993099FDC29922CB
:100F600075A15575A1AAEF600543B101800353B186
:070F7000FEE4F5A1F5FF22EC
:030FBF008FFF227F
:100AC50053455420434F4E4649472E0A004C69670B
:100AD5006874206F6E204E756D204C6F636B204CD3
:100AE5004544210A004C69676874206F6666204E8C
:100AF500756D204C6F636B204C4544210A002563BE
:100B0500007374617274202E2E2E0A004944302021
:100B15003D20253032782025303278200A0049449E
:100B250031203D20253032782025303278200A00CA
:100B3500494432203D202530327820253032782036
:100B45000A0012011001000000083D4107210000C4
:100B55000000000109023B00020100A03209040067
:100B6500000103010100092111010001223E0007D6
:100B750005810308000A09040100010301020009B7
:100B850021100100012234000705820304000A0533
:100B9500010906A101050719E029E71500250175D9
:100BA5000195088102950175088101950375010577
:100BB500081901290391029505750191019506759D
:100BC5000826FF000507190029918100C0050109C4
:100BD50002A1010901A10005091901290315002533
:100BE50001750195038102750595018101050109CD
:100BF50030093109381581257F750895038106C0AF
:010C0500C02E
:100F2C004400840000000048006E00000000000037
:0A0F3C000000410082004100830024
:0A0F970075A15575A1AA43B11022FF
:0E0F890053D1FB7F027E00120F4743D104229A
:100E8200C2EAE4F5E275D18043D10443E240CE7474
:100E920000CECF7414CF8EE58FE4E5EB54FE44040C
:100EA200F5EBCE7400CECF7400CF8EED8FEC53EA0B
:100EB200F3CE7400CECF740ACF8EEF8FEEE5EA54F4
:100EC200EF4440F5EAE4F5E343E22943D10175D862
:070ED200FF75E107D2EA22DF
:04000300900070F009
:1000070090008BE06025C8740AC8CC7400CCCD740E
:1000170001CD7B017A00796E7E007F081208E075BA
:0C002700D30853D2FC9000827401F02238
:100ED90090008BE06025C87414C8CC7400CCCD7424
:100EE90001CD7B017A0079847E007F041208E075C8
:0C0EF900D50453D4FC9000837401F02257
:0300430002004672
:0D004600C0E0C0F0C083C082C0D075D008FB
:1000530020D903020470E5D9543F700302043A2403
:10006300E070030203AD14602124F16033240E60B9
:100073000302046C75D50063D440E5D454FC4402F8
:10008300F5D4900083E4F002046C75D30063D2408E
:10009300E5D254FC4402F5D2900082E4F002046CF1
:1000A30075DCC0AFDB90001BE4F0A3EFF090001B06
:1000B300E07004A3E064086003020382900007E099
:1000C300FE900006E0FDEDFF900077EEF0A3EFF069
:1000D30090001BE4F0A3F090001AF0900001E09070
:1000E3000079F0900000E05460601A900079E01409
:1000F30024FD400302038824FB24FD4003020388FC
:100103008000020382900079E0B40B0040030203F5
:100113008090011BF82828730203570202960203FA
:10012300800202DA02038002024602013C020380DB
:10013300020252020277020388900003E024FE6069
:100143002124E060362421707390008874FFF0A3AB
:10015300740BF0A37447F090001BE4F0A37412F047
:10016300806090008874FFF0A3740BF0A37459F0BF
:1001730090001BE4F0A3743BF08047900004E0FF81
:100183007E00701990008874FFF0A3740BF0A374C1
:1001930094F090001BE4F0A3743EF08025EF64011B
:1001A3004E701990008874FFF0A3740BF0A374D2FF
:1001B300F090001BE4F0A37434F0800690001A74EE
:1001C300FFF090001BE0FEA3E0FFD3900078E09FD8
:1001D300900077E09E4005EEF0A3EFF0900077E00B
:1001E300FEA3E0FFC39408EE9400400C7C007D085E
:1001F300CEECCECFEDCF800090001BEEF0A3EFF05E
:1002030090001BE0FEA3E0FFC87400C8CC7400CCD0
:10021300CD7401CD900088E0FBA3E0FAA3E0F912CE
:1002230008E090001BE0FEA3E0FFC3900078E09F8E
:10023300F0900077E09EF0900089EE8FF0120906AF
:10024300020388900002E0FF900077E402037A90B3
:100253000076E0900000F0C3900078E094019000F5
:1002630077E09400500302038890001BE4F0A3049A
:10027300F0020388900002E0900076F0700302031E
:10028300887BFF7A0A79C512051690008B7401F0FA
:10029300020388900000E0541FFF7E006402702D6B
:1002A300900004E014601B2480600D147019E5D4E1
:1002B30054BC4402F5D48015E5D254BC4402F5D2B3
:1002C300800B53D273800690001A74FFF0EF4E70C8
:1002D30003020388020382900000E0541FFD7C00A8
:1002E300701F900003E0FE900002E0FBEB64014E00
:1002F300700D900B609330E5030203880203828044
:100303007EED64024C704B900003E0FE900002E02F
:10031300FDED4E703B900005E0FE900004E0FDED26
:10032300FFEE702AEF24FE60112481601714701E03
:10033300E5D454BF4403F5D4804BE5D4547F440C37
:10034300F5D48041E5D254BF4403F5D28037802FE2
:10035300802D802B900000E4F0A3F0900077E0FE66
:10036300A3E0FFC39402EE940090001B4008E4F066
:10037300A37402F0800FEEF0A3EFF08008800090EA
:10038300001A74FFF090001AE0F4700675DCCF02D7
:10039300046C90001BE0FEA3E0FF4E60048FDD8041
:1003A3000375DD0075DCC002046C900079E024FB6A
:1003B300606E14707A900077E0FEA3E0FFC39408A8
:1003C300EE9400400C7C007D08CEECCECFEDCF80C8
:1003D3000090001BEEF0A3EFF090001BE0FEA3E003
:1003E300FFC87400C8CC7400CCCD7401CD900088D4
:1003F300E0FBA3E0FAA3E0F91208E090001BE0FEA3
:10040300A3E0FFC3900078E09FF0900077E09EF0B8
:10041300900089EE8FF01209068FDD63DC4080497E
:10042300900077A3E0FFE5E354804FF5E380037585
:10043300DD0075DC028032AFDB90001BE4F0A3EF3C
:10044300F0900079E06409701D900000E060087B83
:10045300FF7A0A79D2800C900000E070097BFF7A62
:100463000A79EA12051663DC80C2D9803030D81EBF
:1004730075DC0275D20275D40290008BE4F0900013
:1004830082F0A3F0F5E3C2DAC2D9C2D8800F30DA22
:0D04930009C2DAE5DA30E205800375D8FF12
:0B04A000D0D0D082D083D0F0D0E0326A
:100C0600120FA1900045EFF07BFF7A0B790390005D
:100C160049F0120516900045E024BF603A24F160C1
:100C2600491460591460182406706E900083E070B1
:100C3600FAA304F0120ED9900083E070FA801390A4
:100C46000083E070FAA37402F0120ED9900083E0DC
:100C560070FAA3F0020ED9900082E070FA741D12A9
:100C66000003900082E070FA8028900082E070FA1B
:100C76007438120003900082E070FA8015900082AA
:100C8600E070FA9000707439F0120007900082E06C
:100C960070FA900070F0020007E5D254FC4402F5A9
:090CA600D2E5D454FC4402F5D45B
:010CAF002222
:100D5500120F777F057E00120F47120CB07BFF7ACA
:100D65000B79061205167BFF7A0B7911903FFAE491
:100D750093FF900049E4F0A3EFF0903FFBE493FF6D
:100D850090004BE4F0A3EFF01205167BFF7A0B7988
:100D950023903FFCE493FF900049E4F0A3EFF0902B
:100DA5003FFDE493FF90004BE4F0A3EFF01205162E
:100DB5007BFF7A0B7935903FFEE493FF900049E481
:100DC500F0A3EFF0903FFFE493FF90004BE4F0A316
:100DD500EFF0120516120E82D2AFE4F5D3F5D590D9
:100DE500008BE06003120C067F647E00120F4780C3
:010DF500EE0F
:03000000020DF6F8
:0C0DF600787FE4F6D8FD758122020E3DE6
:10081000E709F608DFFA8046E709F208DFFA803ECA
:1008200088828C83E709F0A3DFFA8032E309F608B7
:10083000DFFA8078E309F208DFFA807088828C831F
:10084000E309F0A3DFFA806489828A83E0A3F608D3
:10085000DFFA805889828A83E0A3F208DFFA804CAD
:1008600080D280FA80C680D4806980F28033801084
:1008700080A680EA809A80A880DA80E280CA8033ED
:1008800089828A83ECFAE493A3C8C582C8CCC58365
:10089000CCF0A3C8C582C8CCC583CCDFE9DEE78035
:1008A0000D89828A83E493A3F608DFF9ECFAA9F0B4
:1008B000EDFB2289828A83ECFAE0A3C8C582C8CC0A
:1008C000C583CCF0A3C8C582C8CCC583CCDFEADE23
:1008D000E880DB89828A83E493A3F208DFF980CC85
:1008E00088F0EF60010E4E60C388F0ED2402B4047E
:1008F0000050B9F582EB2402B4040050AF23234525
:06090000822390086073E1
:10090600C5F0F8A3E028F0C5F0F8E582158270027C
:060916001583E038F02219
:10091C0075F008758200EF2FFFEE33FECD33CDCC92
:10092C0033CCC58233C5829BED9AEC99E582984015
:10093C000CF582EE9BFEED9AFDEC99FC0FD5F0D6F2
:10094C00E4CEFBE4CDFAE4CCF9A88222B800C1B91C
:10095C000059BA002DEC8BF084CFCECDFCE5F0CB5A
:10096C00F97818EF2FFFEE33FEED33FDEC33FCEB93
:10097C0033FB10D703994004EB99FB0FD8E5E4F94E
:10098C00FA227818EF2FFFEE33FEED33FDEC33FC3B
:10099C00C933C910D7059BE99A4007EC9BFCE99A2F
:1009AC00F90FD8E0E4C9FAE4CCFB2275F010EF2F74
:1009BC00FFEE33FEED33FDCC33CCC833C810D70774
:1009CC009BEC9AE899400AED9BFDEC9AFCE899F8AF
:0E09DC000FD5F0DAE4CDFBE4CCFAE4C8F92242
:0C09EA00ECF0A3EDF0A3EEF0A3EFF02280
:1009F600A8828583F0D083D082120A0D120A0D12C6
:100A06000A0D120A0DE473E493A3C583C5F0C583EA
:100A1600C8C582C8F0A3C583C5F0C583C8C582C84A
:010A260022AD
:1004AB00E5152449F582E43400F583E00515229027
:1004BB000046301003900049E475F001120A7F02E8
:1004CB000A272009E97F2ED2098018EF540F2490B8
:1004DB00D43440D4FF300D0BEF24BFB41A005003BB
:1004EB002461FFE516600215160519E51970020562
:1004FB001830100E900046E475F001120A7FEF02DF
:10050B000A6D020F057403D2108003E4C210F515B7
:10051B00900046120A96E4F516F518F519E51660E3
:10052B00077F201204EE80F57517FFC20AC209C2BD
:10053B000BC20CC20EC20FC2111204BAFF700D30E7
:10054B0010057F001204FFAF19AE1822B4255FC24D
:10055B00D5C20D1204BAFF24D0B40A00501A75F09C
:10056B000A781630D50508B6FF0106C6A426F62074
:10057B00D5047002D20C80D924CFB41A00EF5004EA
:10058B00C2E5D20D020700D20A80C6D20980C0D2C2
:10059B000B80BCD2D580BAD20E80B47F201204EE71
:1005AB00200B077401B5160040F11204ABFF1204C7
:1005BB00EE020528D211D20F80951204ABFB120468
:1005CB00ABFA1204ABF94A4B700679D17A077BFF71
:1005DB00200B2EE516602A7E008E82758300120A90
:1005EB004060060EEE651770F0C2D5EBC0E0EAC0B6
:1005FB00E0E9C0E0EE120747D0E0F9D0E0FAD0E036
:10060B00FB120A27FF60AAEBC0E0EAC0E0E9C0E0FA
:10061B001204EED0E02401F9D0E03400FAD0E0FB74
:10062B00E5170460DCD517D980877BFF7A07794300
:10063B00D20B809C791080027908C20FC2118008FE
:10064B00D2D5790A8004790AC2D5E517047002F570
:10065B0017E4FAFDFEFF1204ABFC7B08200A131211
:10066B0004ABFD7B1030090A1204ABFE1204ABFF86
:10067B007B20EC3382D592D55013C3E43009069F0F
:10068B00FFE49EFEE4200A039DFDE49CFCE4CBF812
:10069B00C20AEC700CCFCECDCCE824F8F870F38006
:1006AB0017C3EF33FFEE33FEED33FDEC33FCEB33CF
:1006BB00FB994002FB0FD8E9EB300A05F8D0E0C4F8
:1006CB0048B20AC0E00AEC4D4E4F78207B0070C256
:1006DB00EAB5170040BCC0E0120749D0F0D0E020CB
:1006EB000A04C4C0E0C4B20AC0F01204D7D0F0D5DB
:1006FB00F0EB020528120A9F05C553063F580596D5
:10070B004C05924206434F064B44064B4905AB43FF
:08071B0006515506354606356E
:100723004506354707F150059A2D059E2E05C12B29
:1007330005A22305BF2007DA2A055A48000005B998
:100743003F3F3F00790AA2D5200C14300E09B9109F
:10075300020404B9080104A2D5200F0250010420A9
:100763000B68920BB516005034C0E07F20300C1993
:100773007F30A20B720F720E500F1207A0C20BC272
:100783000FC20EC2117F30800F300E03E9C0E0129A
:1007930004EE300E03D0E0F9D0E0B516CC300E17DE
:1007A3007F30B9100C1204EE7F58300D077F78802C
:1007B30003B908031204EE300B057F2D0204EE7F0C
:1007C300202011F87F2B200FF322920B80CF286E6D
:1007D300756C6C2900D20A1204AB300AF8C20A788D
:1007E3001630D50108F602055A2D50434958120414
:1007F300AB2403B405004001E49007EC931204DF3B
:0D080300743A1204DFD20C75160402063F91
:0A0FA1003098FDAF99C2987E00223F
:100E0200020D55E493A3F8E493A34003F68001F2A4
:100E120008DFF48029E493A3F85407240CC8C333F1
:100E2200C4540F4420C8834004F456800146F6DFC0
:100E3200E4800B0102040810204080900F2CE47E15
:100E4200019360BCA3FF543F30E509541FFEE493B5
:100E5200A360010ECF54C025E060A840B8E493A37C
:100E6200FAE493A3F8E493A3C8C582C8CAC583CAA7
:100E7200F0A3C8C582C8CAC583CADFE9DEE780BE5F
:010F460000AA
:100A2700BB010689828A83E0225002E722BBFE02CD
:090A3700E32289828A83E4932200
:100A4000BB010CE58229F582E5833AF583E022506B
:100A500006E92582F8E622BBFE06E92582F8E222B5
:0D0A6000E58229F582E5833AF583E49322CF
:100A6D00BB010689828A83F0225002F722BBFE0168
:020A7D00F32262
:100A7F00F8E0FBA3A3E0F925F0F0E5821582700200
:070A8F001583E0FA38F022A4
:090A9600EBF0A3EAF0A3E9F02261
:100A9F00D083D082F8E4937012740193700DA3A3E6
:100AAF0093F8740193F5828883E4737402936860FA
:060ABF00EFA3A3A380DFFA
:100F0500EFB40A07740D120F10740A309811A899DE
:100F1500B8130CC2983098FDA899C298B811F6304C
:070F250099FDC299F5992224
:00000001FF
