:100DEA0075A15575A1AAE5B954F84404F5B9E4F515
:020DFA00A12234
:0E0DFC00EF4E600905A1EF1F70F61E80F32276
:100DBA00CDEFCDCCEECCED4C600E7FE87E03120D6C
:090DCA00FCED1D70F11C80EE220D
:040E1F0043C6102294
:100B3900C29FD29EC29DC2CDC2CC4387809000EB9A
:100B4900120A6A00000082E47B0AFAF9F89000EBC5
:100B5900E0FCA3E0FDA3E0FEA3E0FF1209CCCCE892
:100B6900CCCDE9CDCEEACECFEBCF9000EFEFF09030
:100B790000EBE0FCA3E0FDA3E0FEA3E0FFE47B0AB9
:100B8900FAF9F81209CC9000EB120A5E9000EFE036
:100B9900C3940574809480401F9000EBE0FCA3E0AF
:100BA900FDA3E0FEA3E02401FFE43EFEE43DFDE4F5
:100BB9003CFC9000EB120A5EE589540F4420F5894C
:100BC90043C9A09000EBA3A3A3E0F404F58DD28E52
:040BD900D299D29C3F
:010BDD0022F5
:080E0A003098FDC298AF992257
:080E12008F993099FDC299226D
:100DD30075A15575A1AAEF600543B101800353B115
:070DE300FEE4F5A1F5FF227B
:030E23008FFF221C
:100BDE004C69676874206F6E204E756D204C6F6384
:100BEE006B204C4544210A004C69676874206F667F
:100BFE0066204E756D204C6F636B204C4544210A68
:100C0E00007A7A007374617274202E2E2E0A0012EE
:100C1E0001100100000040315107200000000000CB
:100C2E000109022900010104A023090400000203A6
:100C3E0000000509210001000122220007058203A0
:100C4E00400001070502034000010600FF0901A153
:100C5E0001090215002600FF75089540810609025C
:0C0C6E0015002600FF750895409106C097
:040E1A0041015F0033
:10000300C2EAE4F5E275D18053D1FB53E2BFCE746B
:1000130000CECF7440CF8EE58FE443EB0C53EBFE61
:10002300CE7400CECF7400CF8EED8FEC53EAF3F590
:10003300E343E22943D10175D8FF75E107D2EA22F0
:100D6700900163E06025C87480C8CC7400CCCD7452
:100D770001CD7B017A0179147E007F4012095475F9
:0C0D8700D54053D4FC90015F7401F022B1
:0300430002004672
:0D004600C0E0C0F0C083C082C0D075D008FB
:1000530020D9030204DFE5D9543F70030204A92425
:10006300FE602824E2700302041824F06067240E63
:1000730060030204DB75D50063D44090015FE4F0B4
:10008300E5D454FC4402F5D40204DB20DE0302046D
:10009300DBAFDB9000C1E4F0A3EFF063D480E4FFB7
:1000A300EFFD9000C1E0FAA3E0FBD39DEA9400408A
:1000B3001C74402FF582E43400F583E0F4FE748071
:1000C3002FF582E43400F583EEF00F80D38BD55304
:1000D300D4FC0204DB75DCC0AFDB9000C1E4F0A309
:1000E300EFF09000C1E07004A3E064086003020332
:1000F300E8900007E0FE900006E0FDEDFF9001545C
:10010300EEF0A3EFF09000C1E4F0A3F09000C0F094
:10011300900001E0900156F0900000E054607003FD
:100123000201AB900156E024FE604314604024FAC0
:1001330024FD503A240B70309001607401F0A374D5
:1001430001F0A37414F0900154E0FEA3E0FFC39404
:1001530040EE94009000C14008E4F0A37440F080A6
:100163000DEEF0A3EFF080069000C074FFF0900056
:10017300C1E0FEA3E0FFD3900155E09F900154E05E
:100183009E4005EEF0A3EFF0900154E0FEA3E0FFE4
:10019300C39440EE9400400D7C007D40CEECCECF66
:1001A300EDCF020276020276900156E0B40B0040D6
:1001B300030203E69001BEF82828730203BD02037D
:1001C300080203E60203400203E60202C10201DF62
:1001D3000203E60202CD0202F20203EE900003E004
:1001E30024FE602124E060362421704B900160746A
:1001F300FFF0A3740CF0A3741DF09000C1E4F0A30E
:100203007412F0803890016074FFF0A3740CF0A3B3
:10021300742FF09000C1E4F0A37429F0801F9001C3
:100223006074FFF0A3740CF0A37458F09000C1E461
:10023300F0A37422F080069000C074FFF09000C118
:10024300E0FEA3E0FFD3900155E09F900154E09EB0
:100253004005EEF0A3EFF0900154E0FEA3E0FFC3EE
:100263009440EE9400400C7C007D40CEECCECFED6C
:10027300CF80009000C1EEF0A3EFF09000C1E0FE4C
:10028300A3E0FFC87400C8CC7400CCCD7401CD903A
:100293000160E0FBA3E0FAA3E0F91209549000C166
:1002A300E0FEA3E0FFC3900155E09FF0900154E00E
:1002B3009EF0900161EE8FF012097A0203EE900036
:1002C30002E0FF900154E40203E0900113E0900088
:1002D30000F0C3900155E09401900154E094005064
:1002E300030203EE9000C1E4F0A304F00203EE90D6
:1002F3000002E0900113F070030203EE90016374B7
:1003030001F00203EE900000E0541F6402702B9092
:100313000004E024FE601D2481600E147047E5D4C0
:1003230054BC4402F5D40203EEE5D254BC4402F5B6
:10033300D20203EE53D4730203EE0203E8900000EB
:10034300E0541FFD7C00701F900003E0FE9000024C
:10035300E0FBEB64014E700D900C369330E5030225
:1003630003EE0203E8807EED64024C704B900003C1
:10037300E0FE900002E0FDED4E703B900005E0FED4
:10038300900004E0FDEDFFEE702AEF24FE601124DF
:1003930081601714701EE5D454BF4403F5D4804B19
:1003A300E5D4547F440CF5D48041E5D254BF4403D3
:1003B300F5D28037802F802D802B900000E4F0A3AE
:1003C300F0900154E0FEA3E0FFC39402EE9400908A
:1003D30000C14008E4F0A37402F0800FEEF0A3EF35
:1003E300F0800880009000C074FFF09000C0E0F43B
:1003F300700675DCCF0204DB9000C1E0FEA3E0FFD2
:10040300D39440EE940050048FDD800375DD0075B6
:10041300DCC00204DB900156E024FB60721460042C
:100423002405707A900154E0FEA3E0FFC39440EEEC
:100433009400400C7C007D40CEECCECFEDCF80000D
:100443009000C1EEF0A3EFF09000C1E0FEA3E0FF47
:10045300C87400C8CC7400CCCD7401CD900160E0A9
:10046300FBA3E0FAA3E0F91209549000C1E0FEA354
:10047300E0FFC3900155E09FF0900154E09EF0909F
:100483000161EE8FF012097A8FDD63DC40804990C1
:100493000154A3E0FFE5E354804FF5E3800375DDEA
:1004A3000075DC028032AFDB9000C1E4F0A3EFF013
:1004B300900156E06409701D900000E060087BFF26
:1004C3007A0B79DE800C900000E070097BFF7A0BD9
:1004D30079F612058A63DC80C2D9803530D81A7563
:1004E300DC0275D40275E300C2DAC2D9900163E479
:1004F300F090015FF0C2D8801830DA12C2DAE5DA80
:1005030030E20E7BFF7A0C790F12058A800375D8CF
:01051300FFE8
:0B051400D0D0D082D083D0F0D0E032F5
:100D0600120DEA7F057E00120DBA120B397BFF7AAF
:100D16000C791212058AE4FFEFC394407480948024
:100D2600500F74142FF582E43401F583EFF00F8031
:100D3600E7120003D2AFE4F5D3F5D5900163F09046
:100D46000163E0601320951090015FE070FA120DC8
:100D5600677F647E00120DBA7F647E00120DBA8032
:010D6600DEAE
:03000000020C7A75
:0C0C7A00787FE4F6D8FD758122020CC1E1
:10088400E709F608DFFA8046E709F208DFFA803E56
:1008940088828C83E709F0A3DFFA8032E309F60843
:1008A400DFFA8078E309F208DFFA807088828C83AB
:1008B400E309F0A3DFFA806489828A83E0A3F6085F
:1008C400DFFA805889828A83E0A3F208DFFA804C39
:1008D40080D280FA80C680D4806980F28033801010
:1008E40080A680EA809A80A880DA80E280CA803379
:1008F40089828A83ECFAE493A3C8C582C8CCC583F1
:10090400CCF0A3C8C582C8CCC583CCDFE9DEE780C0
:100914000D89828A83E493A3F608DFF9ECFAA9F03F
:10092400EDFB2289828A83ECFAE0A3C8C582C8CC95
:10093400C583CCF0A3C8C582C8CCC583CCDFEADEAE
:10094400E880DB89828A83E493A3F208DFF980CC10
:1009540088F0EF60010E4E60C388F0ED2402B40409
:100964000050B9F582EB2402B4040050AF232345B0
:0609740082239008D473F9
:10097A00C5F0F8A3E028F0C5F0F8E5821582700208
:06098A001583E038F022A5
:1009900075F008758200EF2FFFEE33FECD33CDCC1E
:1009A00033CCC58233C5829BED9AEC99E5829840A1
:1009B0000CF582EE9BFEED9AFDEC99FC0FD5F0D67E
:1009C000E4CEFBE4CDFAE4CCF9A88222B800C1B9A8
:1009D0000059BA002DEC8BF084CFCECDFCE5F0CBE6
:1009E000F97818EF2FFFEE33FEED33FDEC33FCEB1F
:1009F00033FB10D703994004EB99FB0FD8E5E4F9DA
:100A0000FA227818EF2FFFEE33FEED33FDEC33FCC6
:100A1000C933C910D7059BE99A4007EC9BFCE99ABA
:100A2000F90FD8E0E4C9FAE4CCFB2275F010EF2FFF
:100A3000FFEE33FEED33FDCC33CCC833C810D707FF
:100A40009BEC9AE899400AED9BFDEC9AFCE899F83A
:0E0A50000FD5F0DAE4CDFBE4CCFAE4C8F922CD
:0C0A5E00ECF0A3EDF0A3EEF0A3EFF0220B
:100A6A00A8828583F0D083D082120A81120A811269
:100A7A000A81120A81E473E493A3C583C5F0C5838E
:100A8A00C8C582C8F0A3C583C5F0C583C8C582C8D6
:010A9A002239
:10051F00E51524EEF582E43400F583E0051522900D
:10052F0000EB3010039000EEE475F001120AF302B5
:10053F000A9B2009E97F2ED2098018EF540F2490CF
:10054F00D43440D4FF300D0BEF24BFB41A00500346
:10055F002461FFE516600215160519E519700205ED
:10056F001830100E9000EBE475F001120AF3EF0251
:10057F000AE1020D937403D2108003E4C210F51543
:10058F009000EB120B0AE4F516F518F519E5166055
:10059F00077F2012056280F57517FFC20AC209C2D4
:1005AF000BC20CC20EC20FC21112052EFF700D30FE
:1005BF0010057F00120573AF19AE1822B4255FC264
:1005CF00D5C20D12052EFF24D0B40A00501A75F0B3
:1005DF000A781630D50508B6FF0106C6A426F62000
:1005EF00D5047002D20C80D924CFB41A00EF500476
:1005FF00C2E5D20D020774D20A80C6D20980C0D2DA
:10060F000B80BCD2D580BAD20E80B47F2012056287
:10061F00200B077401B5160040F112051FFF1205DC
:10062F006202059CD211D20F809512051FFB120595
:10063F001FFA12051FF94A4B700679457A087BFF9E
:10064F00200B2EE516602A7E008E82758300120A1B
:10065F00B460060EEE651770F0C2D5EBC0E0EAC0CD
:10066F00E0E9C0E0EE1207BBD0E0F9D0E0FAD0E04D
:10067F00FB120A9BFF60AAEBC0E0EAC0E0E9C0E012
:10068F00120562D0E02401F9D0E03400FAD0E0FB8B
:10069F00E5170460DCD517D980877BFF7A0779B718
:1006AF00D20B809C791080027908C20FC21180088A
:1006BF00D2D5790A8004790AC2D5E517047002F5FC
:1006CF0017E4FAFDFEFF12051FFC7B08200A131228
:1006DF00051FFD7B1030090A12051FFE12051FFFB3
:1006EF007B20EC3382D592D55013C3E43009069F9B
:1006FF00FFE49EFEE4200A039DFDE49CFCE4CBF89E
:10070F00C20AEC700CCFCECDCCE824F8F870F38091
:10071F0017C3EF33FFEE33FEED33FDEC33FCEB335A
:10072F00FB994002FB0FD8E9EB300A05F8D0E0C483
:10073F0048B20AC0E00AEC4D4E4F78207B0070C2E1
:10074F00EAB5170040BCC0E01207BDD0F0D0E020E2
:10075F000A04C4C0E0C4B20AC0F012054BD0F0D5F1
:10076F00F0EB02059C120B1306395306B358060A19
:10077F004C06064206B74F06BF4406BF49061F4345
:08078F0006C55506A94606A99E
:100797004506A947086550060E2D06122E06352B6D
:1007A700061623063320084E2A05CE480000062DDC
:1007B7003F3F3F00790AA2D5200C14300E09B9102B
:1007C700020404B9080104A2D5200F025001042035
:1007D7000B68920BB516005034C0E07F20300C191F
:1007E7007F30A20B720F720E500F120814C20BC289
:1007F7000FC20EC2117F30800F300E03E9C0E01226
:100807000562300E03D0E0F9D0E0B516CC300E17F4
:100817007F30B9100C1205627F58300D077F788042
:1008270003B90803120562300B057F2D0205627FAD
:10083700202011F87F2B200FF322920B80CF286EF8
:10084700756C6C2900D20A12051F300AF8C20A78A3
:100857001630D50108F60205CE2D5043495812052A
:100867001F2403B405004001E49008609312055368
:0D087700743A120553D20C7516040206B334
:100C8600020D06E493A3F8E493A34003F68001F271
:100C960008DFF48029E493A3F85407240CC8C3336F
:100CA600C4540F4420C8834004F456800146F6DF3E
:100CB600E4800B0102040810204080900E1AE47EA6
:100CC600019360BCA3FF543F30E509541FFEE49333
:100CD600A360010ECF54C025E060A840B8E493A3FA
:100CE600FAE493A3F8E493A3C8C582C8CAC583CA25
:100CF600F0A3C8C582C8CAC583CADFE9DEE780BEDD
:010E1E0000D3
:100A9B00BB010689828A83E0225002E722BBFE0259
:090AAB00E32289828A83E493228C
:100AB400BB010CE58229F582E5833AF583E02250F7
:100AC40006E92582F8E622BBFE06E92582F8E22241
:0D0AD400E58229F582E5833AF583E493225B
:100AE100BB010689828A83F0225002F722BBFE01F4
:020AF100F322EE
:100AF300F8E0FBA3A3E0F925F0F0E582158270028C
:070B03001583E0FA38F0222F
:090B0A00EBF0A3EAF0A3E9F022EC
:100B1300D083D082F8E4937012740193700DA3A371
:100B230093F8740193F5828883E473740293686085
:060B3300EFA3A3A380DF85
:100D9300EFB40A07740D120D9E740A309811A899C6
:100DA300B8130CC2983098FDA899C298B811F630C0
:070DB30099FDC299F5992298
:00000001FF
