:100D920075A15575A1AAE5B954F84404F5B9E4F56D
:020DA200A1228C
:0E0DA400EF4E600905A1EF1F70F61E80F322CE
:10002A00CDEFCDCCEECCED4C600E7FE87E03120D09
:09003A00A4ED1D70F11C80EE2202
:040DD10043C61022E3
:100B7300C29FD29EC29DC2CDC2CC4387809000F655
:100B83001209FB00000082E47B0AFAF9F89000F6F0
:100B9300E0FCA3E0FDA3E0FEA3E0FF12095DCCE8C7
:100BA300CCCDE9CDCEEACECFEBCF9000FAEFF090EB
:100BB30000F6E0FCA3E0FDA3E0FEA3E0FFE47B0A74
:100BC300FAF9F812095D9000F61209EF9000FAE0C5
:100BD300C3940574809480401F9000F6E0FCA3E06A
:100BE300FDA3E0FEA3E02401FFE43EFEE43DFDE4BB
:100BF3003CFC9000F61209EFE589540F4420F58977
:100C030043C9A09000F6A3A3A3E0F404F58DD28E0C
:040C1300D299D29C04
:010C170022BA
:080DBC003098FDC298AF9922A6
:080DC4008F993099FDC29922BC
:100D7B0075A15575A1AAEF600543B101800353B16D
:070D8B00FEE4F5A1F5FF22D3
:030DD5008FFF226B
:100C1800457272457030526571436F64653D253089
:100C280032580A0045727245703052657153697ABC
:100C3800650A007A7A0053746172742040436869C7
:100C48007049443D253032580A00256300120110CE
:100C580001FF80550848433755000101020001098A
:100C680002270001010080320904000003FF8055BB
:100C78000007058202400000070502024000000745
:100C8800058103400000040309040E037700630094
:100C980068002E0063006E000C0343004800350016
:040CA80035003400DF
:040DCC0041012400BD
:0300430002004672
:0D004600C0E0C0F0C083C082C0D075D008FB
:1000530020D90302045C30DF03020458E5D9543F7E
:10006300700302045024E070030203C61460661494
:10007300605524F2606D242E600302045820DE03D1
:1000830002045863D480AFDB9000CBE4F0A3EFF01D
:10009300E4FFEFFD9000CBE0FAA3E0FBD39DEA94ED
:1000A30000401C744A2FF582E43400F583E0F4FE2B
:1000B300748A2FF582E43400F583EEF00F80D38B3E
:1000C300D553D4FC02045863D440E5D454FC440211
:1000D300F5D402045863D240E5D254FC4402F5D26D
:1000E30002045875DCC0AFDB9000CBE4F0A3EFF063
:1000F3009000CBE07004A3E06408600302038790E0
:100103000006E0FF90011FE4F0A3EFF0900007E08A
:10011300700FD3900120E0947F90011FE094004082
:100123000990011FE4F0A3747FF09000CBE4F0A3E7
:10013300F0900001E090011EF0900000E054606038
:10014300069000CA02031E90011EE07003020341E1
:100153001470030202D324FC70030202A024FD7076
:10016300030202AC1470030202C8147003020323D7
:100173002404600302036A900003E024FE60231456
:1001830060392402600302021690012174FFF0A378
:10019300740CF0A37455F09000CBE4F0A37412F048
:1001A300807A90012174FFF0A3740CF0A37467F0BC
:1001B3009000CBE4F0A37427F08061900002E0602C
:1001C3003924FE601C04704B90012174FFF0A3746A
:1001D3000CF0A37492F09000CBE4F0A3740EF080C3
:1001E3003B90012174FFF0A3740CF0A374A0F09072
:1001F30000CBE4F0A3740CF0802290012174FFF093
:10020300A3740CF0A3748EF09000CBE4F0A37404F9
:10021300F080099000CBE4F0A374FFF09000CBE0F2
:10022300FEA3E0FFD3900120E09F90011FE09E40DA
:1002330005EEF0A3EFF090011FE0FEA3E0FFC394EF
:1002430008EE9400400C7C007D08CEECCECFEDCFC1
:1002530080009000CBEEF0A3EFF09000CBE0FEA384
:10026300E0FFC87400C8CC7400CCCD7401CD9001FC
:1002730021E0FBA3E0FAA3E0F91208E59000CBE04C
:10028300FEA3E0FFC3900120E09FF090011FE09EDA
:10029300F0900122EE8FF012090B020398900002F6
:1002A300E0FF90011FE4020364900124E09000004A
:1002B300F0C3900120E0940190011FE094005003EB
:1002C300020398806F900002E0900124F0020398EB
:1002D300900000E0541F6402703B900004E014603F
:1002E3002614601224816014147022E5D454BC4493
:1002F30002F5D402039853D473020398E5D254BC95
:100303004402F5D202039853D2730203989000CBB0
:10031300E4F0A380069000CBE4F0A374FFF08075B3
:10032300900000E4F0C3900120E0940190011FE0ED
:10033300940040619000CBE4F0A304F08057900058
:1003430000E4F0A3F090011FE0FEA3E0FFC39402DA
:10035300EE94009000CB4008E4F0A37402F08035E3
:10036300EEF0A3EFF0802E9000CBE4F0A374FFF047
:10037300FB7A0C791890011EE0FF9000F9E4F0A3DA
:10038300EFF0800E9000CBE4F0A374FFF0FB7A0C47
:10039300792C12051B9000CBE0FEA3E0FFF44E7016
:1003A3000C90011E74FFF075DCCF020458D3EF9458
:1003B30008EE940050048FDD800375DD0075DCC00A
:1003C30002045890011EE024FB606E14707A9001C1
:1003D3001FE0FEA3E0FFC39408EE9400400C7C00F2
:1003E3007D08CEECCECFEDCF80009000CBEEF0A316
:1003F300EFF09000CBE0FEA3E0FFC87400C8CC741C
:1004030000CCCD7401CD900121E0FBA3E0FAA3E081
:10041300F91208E59000CBE0FEA3E0FFC3900120B2
:10042300E09FF090011FE09EF0900122EE8FF0120A
:10043300090B8FDD63DC40801C90011FA3E0FFE507
:10044300E354804FF5E3800A75DD00800590011EBB
:10045300E0FF75DC02C2D9804930D81475DC02751F
:10046300D20275D40275E300C2DAC2D9C2D880328F
:1004730030DA2CC2DAE5DA30E2287BFF7A0C793BFA
:1004830012051BE5A220E7FB75A15575A1AA75A965
:100493008143870275A15575A1AA75A900800375CB
:0204A300D8FF80
:0B04A500D0D0D082D083D0F0D0E03265
:100D3800C2EAE4F5E275EA4075EB0CCE7400CECF5A
:100D48007400CF8EED8FECCE7400CECF740ACF8EA8
:100D5800EF8FEECE7400CECF744ACF8EE58FE4F5D8
:100D6800E375D18075E22943D10175D8FF75E10794
:030D7800D2EA229A
:100ACA00120D927F057E0012002A120B737BFF7AA9
:100ADA000C793EAFA19000F9E4F0A3EFF012051BE8
:100AEA00120D38D2AF120DB29000F5EFF07BFF7AFB
:100AFA000C79529000F9F012051B9000F5E0FFC343
:100B0A00943040E1EFD3947A50DBEF24D0FFE43401
:100B1A00FFFECAEECAC9EFC97BFFEBC0E0EAC0E03C
:100B2A00E9C0E0C8740AC8CC7400CCCD7401CDD039
:100B3A00E0F9D0E0FAD0E0FB7E007F401208E590B1
:100B4A0000F5E0FF24D0FDE434FFFCD3ED9408EC7B
:100B5A006480948040077E08CFEECF8004EF24D0D3
:090B6A00FF8FD353D2FC020AEF05
:03000000020CAC43
:0C0CAC00787FE4F6D8FD758122020CF37D
:10081500E709F608DFFA8046E709F208DFFA803EC5
:1008250088828C83E709F0A3DFFA8032E309F608B2
:10083500DFFA8078E309F208DFFA807088828C831A
:10084500E309F0A3DFFA806489828A83E0A3F608CE
:10085500DFFA805889828A83E0A3F208DFFA804CA8
:1008650080D280FA80C680D4806980F2803380107F
:1008750080A680EA809A80A880DA80E280CA8033E8
:1008850089828A83ECFAE493A3C8C582C8CCC58360
:10089500CCF0A3C8C582C8CCC583CCDFE9DEE78030
:1008A5000D89828A83E493A3F608DFF9ECFAA9F0AF
:1008B500EDFB2289828A83ECFAE0A3C8C582C8CC05
:1008C500C583CCF0A3C8C582C8CCC583CCDFEADE1E
:1008D500E880DB89828A83E493A3F208DFF980CC80
:1008E50088F0EF60010E4E60C388F0ED2402B40479
:1008F5000050B9F582EB2402B4040050AF23234520
:06090500822390086573D7
:10090B00C5F0F8A3E028F0C5F0F8E5821582700277
:06091B001583E038F02214
:1009210075F008758200EF2FFFEE33FECD33CDCC8D
:1009310033CCC58233C5829BED9AEC99E582984010
:100941000CF582EE9BFEED9AFDEC99FC0FD5F0D6ED
:10095100E4CEFBE4CDFAE4CCF9A88222B800C1B917
:100961000059BA002DEC8BF084CFCECDFCE5F0CB55
:10097100F97818EF2FFFEE33FEED33FDEC33FCEB8E
:1009810033FB10D703994004EB99FB0FD8E5E4F949
:10099100FA227818EF2FFFEE33FEED33FDEC33FC36
:1009A100C933C910D7059BE99A4007EC9BFCE99A2A
:1009B100F90FD8E0E4C9FAE4CCFB2275F010EF2F6F
:1009C100FFEE33FEED33FDCC33CCC833C810D7076F
:1009D1009BEC9AE899400AED9BFDEC9AFCE899F8AA
:0E09E1000FD5F0DAE4CDFBE4CCFAE4C8F9223D
:0C09EF00ECF0A3EDF0A3EEF0A3EFF0227B
:1009FB00A8828583F0D083D082120A12120A1212B7
:100A0B000A12120A12E473E493A3C583C5F0C583DB
:100A1B00C8C582C8F0A3C583C5F0C583C8C582C845
:010A2B0022A8
:1004B000E51524F9F582E43400F583E00515229072
:1004C00000F63010039000F9E475F001120A84027E
:1004D0000A2C2009E97F2ED2098018EF540F2490AE
:1004E000D43440D4FF300D0BEF24BFB41A005003B6
:1004F0002461FFE516600215160519E5197002055D
:100500001830100E9000F6E475F001120A84EF0224
:100510000A720200037403D2108003E4C210F515BE
:100520009000F6120A9BE4F516F518F519E5166029
:10053000077F201204F380F57517FFC20AC209C2B3
:100540000BC20CC20EC20FC2111204BFFF700D30DD
:1005500010057F00120504AF19AE1822B4255FC242
:10056000D5C20D1204BFFF24D0B40A00501A75F092
:100570000A781630D50508B6FF0106C6A426F6206F
:10058000D5047002D20C80D924CFB41A00EF5004E5
:10059000C2E5D20D020705D20A80C6D20980C0D2B8
:1005A0000B80BCD2D580BAD20E80B47F201204F367
:1005B000200B077401B5160040F11204B0FF1204BD
:1005C000F302052DD211D20F80951204B0FB120454
:1005D000B0FA1204B0F94A4B700679D67A077BFF5D
:1005E000200B2EE516602A7E008E82758300120A8B
:1005F0004560060EEE651770F0C2D5EBC0E0EAC0AC
:10060000E0E9C0E0EE12074CD0E0F9D0E0FAD0E02B
:10061000FB120A2CFF60AAEBC0E0EAC0E0E9C0E0F0
:100620001204F3D0E02401F9D0E03400FAD0E0FB6A
:10063000E5170460DCD517D980877BFF7A077948F6
:10064000D20B809C791080027908C20FC2118008F9
:10065000D2D5790A8004790AC2D5E517047002F56B
:1006600017E4FAFDFEFF1204B0FC7B08200A131207
:1006700004B0FD7B1030090A1204B0FE1204B0FF72
:100680007B20EC3382D592D55013C3E43009069F0A
:10069000FFE49EFEE4200A039DFDE49CFCE4CBF80D
:1006A000C20AEC700CCFCECDCCE824F8F870F38001
:1006B00017C3EF33FFEE33FEED33FDEC33FCEB33CA
:1006C000FB994002FB0FD8E9EB300A05F8D0E0C4F3
:1006D00048B20AC0E00AEC4D4E4F78207B0070C251
:1006E000EAB5170040BCC0E012074ED0F0D0E020C1
:1006F0000A04C4C0E0C4B20AC0F01204DCD0F0D5D1
:10070000F0EB02052D120AA405CA53064458059BB6
:100710004C05974206484F06504406504905B043E1
:08072000065655063A46063A5A
:1007280045063A4707F650059F2D05A32E05C62B0B
:1007380005A72305C42007DF2A055F48000005BE7A
:100748003F3F3F00790AA2D5200C14300E09B9109A
:10075800020404B9080104A2D5200F0250010420A4
:100768000B68920BB516005034C0E07F20300C198E
:100778007F30A20B720F720E500F1207A5C20BC268
:100788000FC20EC2117F30800F300E03E9C0E01295
:1007980004F3300E03D0E0F9D0E0B516CC300E17D4
:1007A8007F30B9100C1204F37F58300D077F788022
:1007B80003B908031204F3300B057F2D0204F37FFD
:1007C800202011F87F2B200FF322920B80CF286E68
:1007D800756C6C2900D20A1204B0300AF8C20A7883
:1007E8001630D50108F602055F2D5043495812040A
:1007F800B02403B405004001E49007F1931204E427
:0D080800743A1204E4D20C75160402064482
:0A0DB2003098FDAF99C2987E002230
:100CB800020ACAE493A3F8E493A34003F68001F27E
:100CC80008DFF48029E493A3F85407240CC8C3333D
:100CD800C4540F4420C8834004F456800146F6DF0C
:100CE800E4800B0102040810204080900DCCE47EC3
:100CF800019360BCA3FF543F30E509541FFEE49301
:100D0800A360010ECF54C025E060A840B8E493A3C7
:100D1800FAE493A3F8E493A3C8C582C8CAC583CAF2
:100D2800F0A3C8C582C8CAC583CADFE9DEE780BEAA
:010DD0000022
:100A2C00BB010689828A83E0225002E722BBFE02C8
:090A3C00E32289828A83E49322FB
:100A4500BB010CE58229F582E5833AF583E0225066
:100A550006E92582F8E622BBFE06E92582F8E222B0
:0D0A6500E58229F582E5833AF583E49322CA
:100A7200BB010689828A83F0225002F722BBFE0163
:020A8200F3225D
:100A8400F8E0FBA3A3E0F925F0F0E58215827002FB
:070A94001583E0FA38F0229F
:090A9B00EBF0A3EAF0A3E9F0225C
:100AA400D083D082F8E4937012740193700DA3A3E1
:100AB40093F8740193F5828883E4737402936860F5
:060AC400EFA3A3A380DFF5
:10000300EFB40A07740D12000E740A309811A89900
:10001300B8130CC2983098FDA899C298B811F6305D
:0700230099FDC299F5992235
:00000001FF
