:10303B0075A15575A1AAE5B954F84404F5B9E4F5A1
:02304B00A122C0
:0E304D00EF4E600905A1EF1F70F61E80F32202
:102FF200CDEFCDCCEECCED4C600E7FE87E031230EF
:093002004DED1D70F11C80EE2261
:0430920043C61022FF
:10286300C29FD29EC29DC2CDC2CC438780900287B5
:102873001218FA00000082E47B0AFAF9F890028742
:10288300E0FCA3E0FDA3E0FEA3E0FF12185CCCE8AC
:10289300CCCDE9CDCEEACECFEBCF90028BEFF0904B
:1028A3000287E0FCA3E0FDA3E0FEA3E0FFE47B0AD4
:1028B300FAF9F812185C9002871218EE90028BE076
:1028C300C3940574809480401F900287E0FCA3E0CA
:1028D300FDA3E0FEA3E02401FFE43EFEE43DFDE4AE
:1028E3003CFC9002871218EEE589540F4420F589C9
:1028F30043C9A0900287A3A3A3E0F404F58DD28E6D
:04290300D299D29CF7
:0129070022AD
:083075003098FDC298AF9922CA
:08307D008F993099FDC29922E0
:1030240075A15575A1AAEF600543B101800353B1A1
:07303400FEE4F5A1F5FF2207
:033096008FFF2287
:101F1E00537461727420404368697049443D2530A2
:101F2E0032580A00576169742044657669636520EA
:101F3E00496E0A00456E756D416C6C526F6F74443C
:101F4E00657620657272203D20253032580A004594
:101F5E006E756D416C6C487562506F72742065724F
:101F6E0072203D20253032580A0051756572792055
:101F7E004D6F7573652040253034580A004D6F75CE
:101F8E00736520646174613A2000782530325820E0
:101F9E00000A004D6F757365206572726F72202591
:101FAE003032780A004D6F757365206E6F20696E42
:101FBE007465727275707420656E64706F696E747C
:101FCE000A005175657279204B6579626F61726492
:101FDE002040253034580A00253032582020006B1E
:101FEE006579626F61726420646174613A20006B7E
:101FFE006579626F617264206572726F722025302E
:10200E0032780A006B6579626F617264206E6F20A0
:10201E00696E7465727275707420656E64706F6926
:10202E006E740A005175657279205072696E74650E
:10203E00722040253034580A005072696E746572F1
:10204E00206572726F7220253032780A00517565E4
:10205E007279205553425F4445565F434C4153536A
:10206E005F4849442040253034580A00656E64703C
:10207E003A20253032580A0073656E64206261631F
:10208E006B0A007472616E736D6974206572726F83
:10209E007220253032780A008006000100001200FE
:1020AE00800600020000040000050200000000008F
:1020BE000009000000000000010B000000000000FD
:1020CE000201000000000000A00600290000090027
:1020DE00210A000000000000810600220000FFFF20
:1020EE00A10000000000F103C03300000000020058
:1020FE004035000000000000000410232735435730
:10210E004348005743485541525444656D6F00573C
:10211E004348204163636573736F7279205465730E
:10212E007400312E3000687474703A2F2F77636804
:10213E002E636E005743484163636573736F727904
:10214E003100403400000000040040340000010063
:10215E000C00403400000200130040340000030065
:10216E0004004034000004000E004034000005005E
:02217E000E0051
:04308D004102FF00FD
:1007500012303B7F327E00122FF21228637BFF7A29
:100760001F791EAFA19002A9E4F0A3EFF012136B62
:10077000122D6CC2097BFF7A1F793212136BE49041
:100780000281F030D810C2D8122BEC900281EFF029
:1007900064157002D20930091FC209122FB49002E9
:1007A00081EFF060137BFF7A1F7942E0FF9002A98E
:1007B000E4F0A3EFF012136B122E61900281EFF0C0
:1007C00060137BFF7A1F795DE0FF9002A9E4F0A33C
:1007D000EFF012136B7F33122AB9900285EEF0A36B
:1007E000EFF0F47002EEF470030209097BFF7A1F48
:1007F0007978900285E0FFA3E09002A9CFF0A3EF03
:10080000F012136B900285E0FCA3E0FDEC900280F7
:10081000F0CFEDCF900283EFF0122B91900283E0A6
:10082000601175F00CA424CBF582E43402F583E06A
:10083000FF8005900308E0FF900284EFF0540F70F2
:10084000030208FBE0FE547F4490FFEE30E7047D96
:10085000C080027D00E4FBFA122771900281EFF064
:1008600060030208E2900284E06480F0900283E07A
:10087000FF6015A3E0FEEF75F00CA424CBF582E435
:100880003402F583EEF08008900284E0900308F0D3
:10089000900283E5DBF0E0606B7BFF7A1F798B12BF
:1008A000136BE4900280F0900283E0FF900280E0FE
:1008B000FEC39F50257BFF7A1F799874002EF58226
:1008C000E43400F583E0FF9002A9E4F0A3EFF01216
:1008D000136B900280E004F080CD7BFF7A1F799F3C
:1008E000801F900281E0FF642A60197BFF7A1F79E4
:1008F000A19002A9E4F0A3EFF080067BFF7A1F79B4
:10090000B312136B7F0112305B7F23122AB990025E
:1009100085EEF0A3EFF0F47002EEF47003020A57D4
:100920007BFF7A1F79D0900285E0FFA3E09002A9B7
:10093000CFF0A3EFF012136B900285E0FCA3E0FD73
:10094000EC900280F0CFEDCF900283EFF0122B916C
:10095000900283E0601175F00CA424CBF582E4349E
:1009600002F583E0FF8005900308E0FF900284EF2A
:10097000F07BFF7A1F79E69002A9F012136B9002C8
:1009800084E0FE540F7003020A49EE547F4490FF46
:10099000EE30E7047DC080027D00E4FBFA1227718F
:1009A000900281EFF06003020A30900284E06480DC
:1009B000F0900283E0FF6015A3E0FEEF75F00CA459
:1009C00024CBF582E43402F583EEF08008900284B3
:1009D000E0900308F0900283E5DBF0E060747B01B7
:1009E0007A00790012265D7BFF7A1F79ED12136B76
:1009F000E4900280F0900283E0FF900280E0FEC36A
:100A00009F50257BFF7A1F799874002EF582E4347D
:100A100000F583E0FF9002A9E4F0A3EFF012136B5E
:100A2000900280E004F080CD7BFF7A1F799F801FC9
:100A3000900281E0FF642A60197BFF7A1F79FD90A4
:100A400002A9E4F0A3EFF080067BFF7A207912126E
:100A5000136B7F0112305B309003020B987E007F96
:100A6000407D007B017A0079401219379000407474
:100A70001BF0A37440F0A3741DF0A37455F0A3748D
:100A800042F0A37402F0A37418F0A3741DF0A374D1
:100A900076F0A37430F0E4A3F0A37430F0E4A3F094
:100AA000A37418F07F07122AB9900285EEF0A3EF25
:100AB000F0F47002EEF47003020B987BFF7A207959
:100AC00032900285E0FFA3E09002A9CFF0A3EFF0FF
:100AD00012136B900285E0FCA3E0FDEC900280F025
:100AE000CFEDCF900283EFF0122B91900283E06064
:100AF0001175F00CA424CBF582E43402F583E0FFF9
:100B00008005900308E0FF900284EFF07BFF7A1FDE
:100B100079E69002A9F012136B900284E0FE540F64
:100B2000607675D740EE547F4410FFEE30E7047DC9
:100B3000C080027D0074FFFBFA122771900281EFE2
:100B4000F0703B900284E06480F07E007F407D0086
:100B50007B017A00794012193775D740900284E002
:100B6000FE547F4410FFEE30E7047DC080027D001C
:100B700074FFFBFA122771900281EFF0801A900245
:100B800081E0FF642A60117BFF7A2079479002A9F7
:100B9000E4F0A3EFF012136B7F03122AB9900285E1
:100BA000EEF0A3EFF0F47002EEF47003020D2E7B72
:100BB000FF7A20795B900285E0FFA3E09002A9CF45
:100BC000F0A3EFF012136B900285A3E0FF90028573
:100BD000E4F0A3EFF0E4900282F0900282E0FF6480
:100BE000047003020D29900285E0FCA3E0FD4C6037
:100BF0001BCEEDCEEE75F00CA424CBF582E43402CE
:100C0000F583E5822FF582E43583800B900282E044
:100C10002408F582E43403F583E0FF900284EFF0CA
:100C2000540F7003020D297BFF7A20797AE0FF9040
:100C300002A9E4F0A3EFF012136B900285A3E0FF8A
:100C4000122B91900284E0FE547F4490FFEE30E737
:100C5000047DC080027D00E4FBFA122771900281BE
:100C6000EFF06003020D06900284E06480F0A3E0E0
:100C7000FEA3E0FF4E9002846029E0FDEF75F00CCA
:100C8000A424CBF582E43402F583C083C0829002B1
:100C900082E0D082D0832582F582E43583F583ED2E
:100CA000F08011E0FF900282E02408F582E4340332
:100CB000F583EFF0900283E5DBF0E060637BFF7A81
:100CC0001F79ED12136BE4900280F0900283E0FF35
:100CD000900280E0FEC39F50257BFF7A1F799874B5
:100CE000002EF582E43400F583E0FF9002A9E4F0E1
:100CF000A3EFF012136B900280E004F080CD7BFF35
:100D00007A1F799F8017900281E0FF642A60117B2F
:100D1000FF7A1F79FD9002A9E4F0A3EFF012136BA4
:100D2000900282E004F0020BDA7F0112305B7FF068
:100D3000122AB9900285EEF0A3EFF0F47002EEF4FF
:100D4000700302077E900285A3E0FF900285E4F025
:100D5000A3EFF0900308E0900284F0540F700302B8
:100D60000E55E4FF122B91900284E0FE547F4490D4
:100D7000FFEE30E7047DC080027D00E4FBFA12271D
:100D800071900281EFF06003020E3B900284E064F8
:100D900080F0900308F0900283E5DBF0E49002809D
:100DA000F0900283E0FF900280E0FEC39F50257B1D
:100DB000FF7A1F799874002EF582E43400F583E001
:100DC000FF9002A9E4F0A3EFF012136B900280E011
:100DD00004F080CD7BFF7A1F799F12136B90028302
:100DE000E0FF60717E00C87440C8CC7400CCCD7444
:100DF00001CD7B017A00790012173590030AE0904B
:100E00000284F0FE900283E0F5D7EE547F4410FF99
:100E1000EE30E7047DC080027D0074FFFBFA1227EC
:100E200071900281EFF0702D900284E06480F09068
:100E3000030AF07BFF7A2079868017900281E0FF19
:100E4000642A60117BFF7A2079919002A9E4F0A3D3
:0D0E5000EFF012136B7F0112305B02077E82
:1019A9005553422064657620696E0A0055534220DA
:1019B900646576206F75740A005345545F504F5221
:1019C9005420202530325820202530325820002537
:1019D90030327820000A00526573657420555342ED
:1019E90020506F72740A0044697361626C652075D6
:1019F900736220706F72742062656361757365200C
:101A09006F6620646973636F6E6E6563740A00475D
:101A1900657444657644657363723A2000782530AD
:101A29003258200047657443666744657363723AA8
:101A390020005553422D4469736B205265616479C6
:101A49000A005553422D5072696E74204F4B0A009B
:101A59005553422D5072696E742052656164790A3A
:101A690000416E616C797A65486964496E74456EA6
:101A7900647020253032780A004374726C5365749F
:101A8900557362436F6E66696720253032780A00A4
:101A99004765744849445265706F72743A2000551D
:101AA90053425F4445565F434C4153535F48494451
:101AB9002052656164790A005553422D4B6579625C
:101AC9006F6172642052656164790A005553422D31
:101AD9004D6F7573652052656164790A00476574B5
:101AE90048756244657363723A20004578742D48DD
:101AF900554220506F72745F2531642320706F77CF
:101B09006572206F6E206572726F720A0064765F6B
:101B1900636C7320253032780A0069665F636C73E1
:101B290020253032780A0069665F737562636C73C9
:101B390020253032780A0025303278202530327855
:101B49000A00414F41204D6F64650A00496E69746E
:101B5900526F6F7444657620457272203D2025309E
:101B690032580A00456E756D5553424465760A0030
:101B7900496E6974206465762040457874487562B9
:101B89002D706F72745F2531642000546869732069
:101B990070726F6772616D20646F6E277420737540
:101BA90070706F7274204C6576656C2032204855D0
:101BB900420A00496E69744465764F6E4875622021
:101BC900457272203D20253032580A00466F756EE5
:101BD900642066756C6C2073706565642064657635
:101BE900696365206F6E20706F7274202531640AF5
:101BF90000466F756E64206C6F772073706565643D
:101C090020646576696365206F6E20706F72742039
:101C19002531640A00526573657420706F727420EF
:101C2900616E64207468656E207761697420696EDD
:101C39000A00446576696365206F6E20706F72745F
:101C4900206572726F720A00446576696365206F58
:101C59006E20706F7274202531642072656D6F7605
:101C690065640A00456E756D416C6C487562506F0C
:101C7900727420657272203D20253032580A002185
:071C89000900020000010048
:08308500E4900300F0A3F02227
:102BEC00E49002A5F0E5DA30E026900300E0600600
:102BFC00E5D15401703C1230859003007401F07BD8
:102C0C00FF7A1979A912136B9002A57415F0802222
:102C1C00900300E0C39401748094804015123085B9
:102C2C007BFF7A1979B512136B9002A5E0700374CF
:072C3C0016F09002A5E0FF75
:012C4300226E
:0C306900EF547FFFE5E354804FF5E322B5
:0E305B00EF600753E2BF53D27F2243E24022D0
:102DEB009002CE7408F07E007F0D7D007B017A038C
:102DFB007900121937E4FF12306953D1FE7F0112AB
:102E0B00305BE5D154FB4402F5D17F147E00122FC9
:0E2E1B00F253D1FD7FFA7E0012304DC2D82254
:102DAC00900300E0C394017480948050037401F08C
:102DBC00E5DA30E027E5D154017015E5DA30E104AD
:102DCC007F0080027F01900302EFF0700343D10477
:0F2DDC0043E20175D24043D1017F00227F1622CE
:102B9100CEEFCEEE604475F00CA424C4F582E4348B
:102BA10002F583E0FF123069EE75F00CA424C5F53F
:102BB10082E43402F583E0FF12305BCFEECFEF7594
:102BC100F00CA424C5F582E43402F583E0701B43C4
:102BD100D280D20B7F64FE02304DC20B900301E024
:0B2BE100FF123069A3E0FF12305B22FE
:10300B007F907E0120D909EF1F70011EEF4E70F4E7
:08301B0030D9037F00227FFE83
:01302300228A
:0B2771009002A2EFF0A3EAF0A3EBF04F
:10277C00CFEDCF8FD68FD4E4F5DD9002A2E0F5D566
:10278C00C2D97F907E0120D909EF1F70011EEF4E38
:10279C0070F4E4F5D520D9037FFE2230D828C2D8B6
:1027AC00122BECEF64157002D209900300E0FD7C53
:1027BC000070037F1622ED64014C70037F15227F9D
:1027CC00C87E0012304D30D97030DE037F0022E518
:1027DC00D9540FFFFD7C00640E70028011ED640A69
:1027EC004C70299002A3E0FCA3E0FD4C7003EF8039
:1027FC0041C3ED94FFEC94FF500E9002A4E024FF33
:10280C00F09002A3E034FFF015DD80309002A2E0DE
:10281C00C4540F24F7600D24FC6004240C7017EFD3
:10282C00601A800EEFFD64037005ED640B600DEF14
:10283C00600A4420FF227FFE2275D8FF7F0F7E00A6
:10284C0012304D05DDAFDDC3EF94037480948050DE
:06285C00030227867F2025
:012862002253
:101C9000122C4490029A7401F0A37402F07493A37E
:071CA000F07B017A0079805E
:0B1CA700900297EBF0A3EAF0A3E9F035
:101CB2007FC87E0012304D90029AE0FBA3E0FAA3A7
:101CC200E0F9EA494B6006E4F5F012180175D7080D
:101CD2007B107A27E4FD7FD012277190029DEFF0EE
:101CE2006003E0FF2275D6D075D4D075D70190007D
:101CF20047E0FE900046E0FDEDFF90029EEEF0A36D
:101D0200EFF04E7003021EE9900297E0FBA3E0FAA7
:101D1200A3E0F9EA494B7003021EE9900040E0207B
:101D2200E703021DF290029EE07002A3E07003023C
:101D32001DEC7FC87E0012304D7B107A27ADD47F18
:101D42009012277190029DEFF0E0FF600122AFDB5D
:101D520090029EE0FCA3E0FDD39FEC94004006AF0E
:101D6200DB7E008006CEECCECFEDCF9002A0EEF06F
:101D7200A3EFF09002A0E0FEA3E0FFC390029FE079
:101D82009FF090029EE09EF090029AE0FBA3E0FAA0
:101D9200A3E0F9EA494B6006EE8FF01217C9E4FF9F
:101DA200FE9002A0E06E7003A3E06F602C74002F1F
:101DB200F58274003EF583E0FD900297E0FBA3E01C
:101DC200FAA3E0F9ED1217A1900298E475F001125E
:101DD20017B30FBF00010E80C8AFDBEF600C90029B
:101DE200CEE01455DB7003021D27E4F5D7021EE98D
:101DF20090029EE07002A3E07003021EE97FC87E9B
:101E02000012304D9002CEE0FFFD90029EE0FAA358
:101E1200E0FBC39DEA940040028003CFEBCF8FD753
:101E2200900297E0FBA3E0FAA3E0F99000011217F9
:101E320074640970379002FFE06401F01217A190F8
:101E42000297E0FBA3E0FAA3E0F912175BFF90020E
:101E5200A9E4F0A3EFF09002FFE0FF9002ABE4F000
:101E6200A3EFF07BFF7A1979C212136BE4FFFEAD88
:101E7200D7ED6F7001EE602C900297E0FBA3E0FAC1
:101E8200A3E0F912175BFD74402FF58274003EF552
:101E920083EDF0900298E475F0011217B30FBF00C2
:101EA200010E80CB7B107A27ADD67F10122771905E
:101EB200029DEFF0E0FF600122AFD7C390029FE0E6
:101EC2009FF090029EE09400F090029AE0FBA3E063
:101ED200FAA3E0F9EA494B7003021DF2AFD7E48F8F
:101EE200F01217C9021DF27FC87E0012304DE5D7ED
:101EF20060047F9080027F107B107A277DC01227BA
:101F02007190029DEFF06003E0FF22AFD7EF700205
:0B1F1200FF22AFDBEF7002FF227F1701
:011F1D0022A1
:102C4400300B2C8F828E83E493900040F07D01ED55
:102C54006409601B8F828E83E493FC74402DF5829B
:102C6400E43400F583ECF00FBF00010E0D80E0208A
:102C74000B22E4FDED6408601B8F828E83E493FCD9
:102C840074402DF582E43400F583ECF00FBF0001AD
:042C94000E0D80E0C1
:012C98002219
:102D2A009002CE7408F07E207FA6122C4490029A5C
:102D3A007401F0A37402F07493121C9FEF600122D5
:102D4A00900087E09002CEF09020ACE493FFC3900D
:102D5A000294E09F900293E0940050037F17227F31
:012D6A000068
:012D6B002245
:102B2F007E207FAE122C4490029A7401F0A374029F
:102B3F00F0A37493121CA0EF600122900083E0FEBB
:102B4F00900082E0FDEDFF900293EEF0A3EFF07E98
:102B5F00207FAE122C44900293E0FCA3E0FDEC909A
:102B6F000047F0CFEDCF900046EFF090029A74013E
:102B7F00F0A37402F0A37493121CA0EF6001227FE4
:012B8F000045
:012B90002222
:052CE300900293EFF0E8
:102CE8007E207FB6122C44300B08900293E09000AF
:102CF80043F0200B08900293E0900042F090029A73
:102D0800E4F0A3F0A3F0FBFAF9121CA7EF6001228C
:102D1800900293E0FF1230697F0A7E00122FF27F43
:012D280000AA
:012D29002287
:052F0400900289E0FFCE
:102F0900CBEFCB7E207FBE122C44300B05900043C3
:102F1900EBF0200B08CFEBCF900042EFF090029A34
:0C2F2900E4F0A3F0A3F0FBFAF9021CA7EF
:102F3500CBEFCB7E207FCE122C44300B0590004585
:102F4500EBF0200B08CFEBCF900044EFF090029A06
:0C2F5500E4F0A3F0A3F0FBFAF9021CA7C3
:102F6100CBEFCB7E207FC6122C44300B0590004363
:102F7100EBF0200B08CFEBCF900042EFF090029ADC
:0C2F8100E4F0A3F0A3F0FBFAF9021CA797
:0E2A3800900293EFF0A3EBF0A3EAF0A3E9F015
:102A46007E207FDE122C44900293E0300B0690002D
:102A560045F08004900044F0900294E0F9A3E0FA77
:102A6600A3E090029AC9F0A3EAF0A3E9121CA0CB56
:102A7600EFCBEB6003CFCF227E207FE6122C449073
:102A86000293E0300B06900045F08004900044F07D
:102A9600900294E0F9A3E0FAA3E090029AC9F0A3A9
:102AA600EAF0A3E9121CA0CBEFCBEB6003CFCF2259
:022AB6007F009F
:012AB80022FB
:102ECF007E207FD6122C4490029A7401F0A37402D4
:102EDF00F0A37492121CA0EF6001229020DCE49307
:102EEF00FFC3900293E09F900292E0940050037F03
:042EFF0017227F0017
:012F030022AB
:052C9900900287E0FF3E
:102C9E0090004074A3F0A3E4F0A3F0A3F0A3EFF030
:102CAE00A3E4F0A37404F0A3E4F07B0190029A0471
:102CBE00F0A37402F0A37489F0121CA3EF6001223A
:102CCE00C390028AE09404900289E0940050037F3E
:042CDE0017227F003A
:012CE20022CF
:072E2900900287E0FF7D0429
:102E30009000407423F0A37403F0CEEDCEA3EEF027
:102E4000A3E4F0A3EFF0A3E4F0A3F0A3F0F9900261
:102E50009AC9F0A3F0A3E9F07B007A007900021C84
:012E6000A7CA
:052E9900900287E0FF3C
:102E9E009000407423F0A37401F0CEEDCEA3EEF0BB
:102EAE00A3E4F0A3EFF0A3E4F0A3F0A3F0F99002F3
:102EBE009AC9F0A3F0A3E9F07B007A007900021C16
:012ECE00A75C
:102FD4007E207FEE122C4490029A7401F0A37402B6
:0D2FE400F0A37492121CA0EF6001227F0088
:012FF10022BD
:0B250400900293EEF0A3EFF0A3EDF0C7
:10250F00E4900297F0ED7E007F046022EEC0E0EFD2
:10251F00C0E07D00900295E075F00CA424CBF97417
:10252F000235F0FA7B01D0E0FFD0E0FE80087D009D
:10253F007B017A037908121937E4900296F0900222
:10254F0093E0FEA3E0FFF5828E83A3A3E0FD90024C
:10255F0096E0FCC39D400302264EEF2CF582E43E2D
:10256F00F583A3E064056003022622900296E0FF44
:10257F00900293E0FCA3E0FD2FF582E43CF583A3EA
:10258F00A3A3E0540364036003022622ED2FF58218
:10259F00E43CF583A3A3E0FF30E778900295E0FEDB
:1025AF006021EF540FFF900297E0FBEE75F00CA443
:1025BF0024CBF582E43402F583E5822BF582E435F2
:1025CF0083801C900296E02DF582E43CF583A3A353
:1025DF00E0540FFF900297E02408F582E43403F5EE
:1025EF0083EFF07BFF7A1979D8900297E02408F5F2
:1025FF0082E43403F583E0FF9002A9E4F0A3EFF047
:10260F0012136B900297E004F0E0C394047480946B
:10261F0080502C900296E0FF900293E0FCA3E02FF5
:10262F00F582E43CF583E0900298F0D39410748027
:10263F009480500BE0FF900296E02FF002254D7B27
:0D264F00FF7A1979DE12136B900297E0FFFD
:01265C00225B
:092381007E007F80900289E0FDDE
:0B238A00900293EEF0A3EFF0A3EDF043
:10239500E4A3F0A37402F0ED7E007F046022EEC09A
:1023A500E0EFC0E07D00900295E075F00CA424CB31
:1023B500F9740235F0FA7B01D0E0FFD0E0FE800829
:1023C5007D007B017A037908121937E4FF900293A7
:1023D500E0FCA3E0FDF5828C83A3A3E0FEEFC39EA2
:1023E5004003022501ED2FF582E43CF583A3E0646B
:1023F5000560030224DF900293A3E02FF582E43CFD
:10240500F583A3A3A3E05403640260030224DF90D1
:102415000295E0FE606AED2FF582E43CF583A3A307
:10242500E030E726540FFD900296E0FC04F0EE75CF
:10243500F00CA424CBF582E43402F583E5822CF577
:1024450082E43583F583EDF0807B900293E0FCA375
:10245500E02FF582E43CF583A3A3E0540FFE900240
:1024650097E0FD04F0900295E075F00CA424CBF5FF
:1024750082E43402F583E5822DF582E435838041DB
:10248500900293E0FCA3E0FD2FF582E43CF583A3E5
:10249500A3E030E70F540FFE900296E0FB04F074C2
:1024A500082B8018ED2FF582E43CF583A3A3E054B7
:1024B5000FFE900297E0FD04F074082DF582E434D8
:1024C50003F583EEF0900296E06402700204F0904A
:1024D5000297E0640470037403F0900293E0FCA398
:1024E500E02FF582E43CF583E0900298F0D3941058
:0E24F500748094805006E02FFF0223D27F00F7
:0125030022B5
:102908007E207FF6121C90EF600122900080E0C3C9
:1029180094027480948050037F4122E4900292F0E4
:10292800900292E0C39406748094805069E0FF900E
:10293800210693FECBEECB75F008EFA42450F58268
:10294800E5F03421AF82FE122C44900047E0FE905F
:102958000046E0FDEDFFCDEBCD7C00740D2DF9ECCC
:102968003421FA7BFFEBC0E0EAC0E0E9C0E0C874BC
:1029780080C8CC7400CCCD7401CDD0E0F9D0E0FA99
:10298800D0E0FB121735121C93EF600122900292DF
:10299800E004F00229287E207FFE121C90EF6001DF
:0329A800227F008B
:0129AB002209
:10000300E490028DF0900287F07BFF7A1979E01279
:10001300136BE490028EF0A3F0900287E0FFC3908D
:10002300028FE09F90028EE0940050287F647E0050
:10003300122FF2900287E0D3940A748094804004D4
:10004300A3E0FF2290028FE004F070CD90028EE0D7
:1000530004F080C5122DEBE490028EF0A3F0900221
:1000630088F07F017E00122FF2122DACEF702390E7
:10007300028EF0A3F0900288E004F0900287E0245F
:1000830014FFE433FEA3E0D39FEE6480F8748098FA
:10009300501D90028FE004F0700690028EE004F091
:1000A300C390028FE0946490028EE0940040B3907A
:1000B300028EE07002A3E0600C1230857BFF7A1998
:1000C30079F012136BE4FF122B917BFF7A1A7918E4
:1000D30012136B122D2A900288EFF0600302072699
:1000E30090028EF0A3F09020ACE493FF90028EE098
:1000F300FCA3E0FDC39FEC9400502D7BFF7A1A799B
:100103002674802DF58274003CF583E0FF9002A9EC
:10011300E4F0A3EFF012136B90028FE004F070C6CB
:1001230090028EE004F080BE7BFF7A1979DE121311
:100133006B900089E0FE900088E07C002400FFECD7
:100143003E900304F0A3EFF090008BE0FE90008A52
:10015300E02400FFEC3E900306F0A3EFF090008450
:10016300E090028AF09020B8E493FF122CE390020F
:1001730088EFF060030207269020B893900301F004
:100183007BFF7A1A792D12136B122B2F900288EFB3
:10019300F06003020726900085E0900289F090004A
:1001A30084E090028CF0E490028EF0A3F090008340
:1001B300E0FE900082E0FDEDFF90028EE0FCA3E004
:1001C300FDC39FEC9E502D7BFF7A1A792674802DF8
:1001D300F58274003CF583E0FF9002A9E4F0A3EFFD
:1001E300F012136B90028FE004F070C190028EE066
:1001F30004F080B97BFF7A1979DE12136B90008EBD
:10020300E090028BF090028AE0707AA3E0640870B9
:10021300747E007F80FD12238AE490028EF0A3F0A7
:1002230090028EE0FEA3E0FF64044E602D7BFF7A14
:100233001979D874082FF58274033EF583E0FF9093
:1002430002A9E4F0A3EFF012136B90028FE004F025
:1002530070CE90028EE004F080C67BFF7A1979DEBF
:1002630012136B122F04900288EFF060030207262B
:100273009003007403F09003037408F07BFF7A1A71
:10028300793B0204B090028AE06003020356A3E0C4
:100293006407600302035690008FE0640160030269
:1002A30003567BFF7A1A794B12136B900093E0FF8E
:1002B3007E006405700AA3E06006900308F0801EC8
:1002C300EF64054E7018900094E0FF7C0060047D9D
:1002D3000180027D00ED4C7005900309EFF0900062
:1002E3009AE0FF7E0064057010900094E0600A902D
:1002F300009BE0900308F08020EF64054E701A9095
:100303000094E07E0060047F0180027F00EF4E7066
:100313000890009BE0900309F0122F04900288EFED
:10032300F06003020726A3E0FF122F61900288EF1B
:10033300F0122FD4900288EFF06003020726900397
:10034300007403F09003037407F07BFF7A1A795962
:100353000204B090028AE060030204BFA3E06403D6
:1003630060030204BF90008FE0D3940174809480F3
:1003730040030204BF7E007F80E4FD122504900247
:1003830088EFF07BFF7A1A796A9002A9E4F0A3EF71
:10039300F012136B900090E090028BF07BFF7A1ABF
:1003A3007982900289E0FF9002A9E4F0A3EFF012B2
:1003B300136B122F04900288EFF060030207267B71
:1003C300FF7A1A799912136BE490028AF090028CE7
:1003D300E0FE90028AE0FFC39E506A7B017A0279B5
:1003E30090122A38900288EFF0705290028EF0A398
:1003F300F0900290E0FEA3E0FF90028EE0FCA3E009
:10040300FDC39FEC9E502D7BFF7A1A792674802DB5
:10041300F58274003CF583E0FF9002A9E4F0A3EFBA
:10042300F012136B90028FE004F070C590028EE01F
:1004330004F080BD7BFF7A1979DE12136B90028A78
:10044300E004F080889003007403F090028BE06472
:1004530001702A9003037423F090028CE0D394017B
:1004630074809480400F7BFF7A1A79A812136B90E3
:1004730003037403F07BFF7A1A79C1803090028BF7
:10048300E06402702E9003037433F090028CE0D387
:10049300940174809480400F7BFF7A1A79A8121319
:1004A3006B9003037403F07BFF7A1A79D512136BF5
:1004B30002071F90028874FBF002072690028AE06D
:1004C300640960030205E67E007F80FD1225049027
:1004D3000288EFF07BFF7A1A796A9002A9E4F0A30D
:1004E300EFF012136B7BFF7A1A79E612136B122E5D
:1004F300CF900288EFF0600302072690028EF0A3EC
:10050300F0900080E0FF90028EE0FCA3E0FDC39F2B
:10051300EC9400502D7BFF7A1A792674802DF58296
:1005230074003CF583E0FF9002A9E4F0A3EFF0121E
:10053300136B90028FE004F070C790028EE004F01A
:1005430080BF7BFF7A1979DE12136B900082E090F3
:10055300030CF0D394047480948040037404F01269
:100563002F04900288EFF0600302072690030074C3
:1005730003F09003037409F090028EE4F0A304F0F7
:1005830090030CE0FFD390028FE09F90028EE094E3
:1005930000504DE0FEA3E0FF9002C375F00C12196A
:1005A3002BEE75F00CA42583F583E4F07D08122E61
:1005B30030900288EFF060187BFF7A1A79F490028A
:1005C3008EE0FFA3E09002A9CFF0A3EFF012136B2C
:1005D30090028FE004F070A890028EE004F080A0F7
:1005E30002071F7BFF7A1B791690028AE0FF9002B5
:1005F300A9E4F0A3EFF012136B7BFF7A1B7923902E
:10060300028BE0FF9002A9E4F0A3EFF012136B7BDF
:10061300FF7A1B793090008FE0FF9002A9E4F0A3EA
:10062300EFF012136B7E007F80E4FD12238AE490C7
:10063300028EF0A3F090028EE0FEA3E0FF64044E6E
:10064300602D7BFF7A1979D874082FF58274033EE5
:10065300F583E0FF9002A9E4F0A3EFF012136B908F
:10066300028FE004F070CE90028EE004F080C67B2F
:10067300FF7A1979DE12136B122F04900288EFF0C0
:1006830060030207267BFF7A1B7940900304E0FF97
:10069300A3E09002A9CFF0A3EFF0900306E0FFA33D
:1006A300E09002ABCFF0A3EFF012136B900304E0E2
:1006B30064187004A3E064D17025900306E0FEA3E0
:1006C300E47003EE642D70177BFF7A1B794B1213D2
:1006D3006B9003007403F090030374F0F0803D12F9
:1006E3002908900288EFF0703A90028DE0C39403DA
:1006F30074809480500DE004F07FF47E01122FF299
:1007030002001590028AE0FF6002800590028BE0F0
:10071300FF900303EFF09003007403F07F011230A6
:100723005B1F227BFF7A1B7955900288E0FF9002C2
:10073300A9E4F0A3EFF012136B9003007402F07FAF
:0D0743000112305B900287E004F002001507
:102FB4007BFF7A1B796D12136B900300E064017040
:0F2FC4000C120003780DEFF66003E6FF227F008A
:012FD30022DB
:050E5D00900289EFF096
:100E62007BFF7A1B79799002A9E4F0A3EFF01213C9
:100E72006B900289E0FE70037FFE22CFEECF122B31
:100E8200917BFF7A1A791812136B122D2A90028A1B
:100E9200EFF06003E0FF22900089E0FE900088E01E
:100EA2007C002400FFEC3EFE900289E0FD75F00C10
:100EB200A424C7F582E43402F583EEF0A3EFF090A8
:100EC200008BE0FE90008AE07A002400FFEA3EFEFA
:100ED200ED75F00CA424C9F582E43402F583EEF03A
:100EE200A3EFF0900084E090028CF0900289E0245D
:100EF20010FF90028BF0122CE390028AEFF0600355
:100F0200E0FF2290028BE0FF900289E075F00CA4D2
:100F120024C4F582E43402F583EFF07BFF7A1A7978
:100F22002D12136B122B2F90028AEFF06003E0FF59
:100F320022900085E090028BF0E490028FF0A3F003
:100F4200900083E0FE900082E0FDEDFF90028FE0D2
:100F5200FCA3E0FDC39FEC9E502D7BFF7A1A7926FD
:100F620074802DF58274003CF583E0FF9002A9E4C1
:100F7200F0A3EFF012136B900290E004F070C190B6
:100F8200028FE004F080B97BFF7A1979DE12136BCD
:100F920090008EE090028DF090028CE060030210CF
:100FA2004BA3E06408600302104B122381E4900219
:100FB2008FF0A3F090028FE0FEA3E0FF64044E6086
:100FC2003E7BFF7A1979D8900289E075F00CA4244F
:100FD200CBF582E43402F583E5822FF582E5833E88
:100FE200F583E0FF9002A9E4F0A3EFF012136B90F7
:100FF2000290E004F070BD90028FE004F080B57BB7
:10100200FF7A1979DE12136B90028BE0FF122F091F
:1010120090028AEFF060030212CB900289E0FF7522
:10102200F00CA424C3F582E43402F5837403F0EFD8
:1010320075F00CA424C6F582E43402F5837408F03A
:101042007BFF7A1A793B0211D990028CE06003028D
:1010520011E1A3E0640360030211E190008FE0D389
:1010620094017480948040030211E1900084E09026
:10107200028EF07E007F80900289E0FD12250490AE
:10108200028AEFF07BFF7A1A796A9002A9E4F0A350
:10109200EFF012136B900090E090028DF090028BB3
:1010A200E0FF122F0990028AEFF060030212CB9048
:1010B200028CF090028EE0FE90028CE0FFC39E5004
:1010C2006A7B017A027991122A3890028AEFF070D3
:1010D2005290028FF0A3F0900291E0FEA3E0FF9005
:1010E200028FE0FCA3E0FDC39FEC9E502D7BFF7AB4
:1010F2001A792674802DF58274003CF583E0FF9006
:1011020002A9E4F0A3EFF012136B900290E004F056
:1011120070C590028FE004F080BD7BFF7A1979DE02
:1011220012136B90028CE004F08088900289E0FF39
:1011320075F00CA424C3F582E43402F5837403F041
:1011420090028DE064017043EF75F00CA424C6F5A3
:1011520082E43402F5837423F090028EE0D394018A
:1011620074809480401D7BFF7A1A79A812136B90C9
:101172000289E075F00CA424C6F582E43402F583FA
:101182007403F07BFF7A1A79C1804C90028DE0647F
:1011920002704A900289E075F00CA424C6F582E43C
:1011A2003402F5837433F090028EE0D3940174809C
:1011B2009480401D7BFF7A1A79A812136B900289E2
:1011C200E075F00CA424C6F582E43402F5837403BE
:1011D200F07BFF7A1A79D512136B0212C4803A900F
:1011E200028CE06409703B900289E075F00CA42443
:1011F200C6F582E43402F5837409F07BFF7A1B7929
:101202009412136B90028FA3E0FF7D01122E9E9029
:10121200028AEFF06003E0FF2290028A74FBF00280
:1012220012CB122381E490028FF0A3F090028FE0A0
:10123200FEA3E0FF64044E603E7BFF7A1979D890EA
:101242000289E075F00CA424CBF582E43402F58324
:10125200E5822FF582E5833EF583E0FF9002A9E463
:10126200F0A3EFF012136B900290E004F070BD90C7
:10127200028FE004F080B57BFF7A1979DE12136BDE
:1012820090028BE0FF122F0990028AEFF0703A90E1
:101292000289E0FF75F00CA424C3F582E43402F560
:1012A200837403F090028CE0FE6002800590028D50
:1012B200E0FEEF75F00CA424C6F582E43402F58357
:1012C200EEF07F0112305B1F227BFF7A1B79BC900C
:1012D200028AE0FF9002A9E4F0A3EFF012136B90F0
:1012E2000289E075F00CA424C3F582E43402F5838C
:0D12F2007402F07F0112305B90028AE0FF71
:0112FF0022CC
:102180009002877401F090030CE0FF900287E0D387
:102190009F400302237EE4FF122B91122C999002A0
:1021A00088EFF06003E0FF22900080E030E00790CD
:1021B0000082E020E00B900082E0641060030222C5
:1021C000DC900287E0FF75F00CA424C3F582E434B0
:1021D00002F5837401F0EF75F00CA424C4F582E4D9
:1021E0003402F583E4F0122C9E900288EFF0600335
:1021F000E0FF22900081E030E1047F0080027F0157
:10220000900287E0FE75F00CA424C5F582E4340248
:10221000F583EFF0EE75F00CA424C5F582E43402EA
:10222000F583E07BFF60077A1B79D5EE80087A1B87
:1022300079FA900287E0FF9002A9E4F0A3EFF01290
:10224000136B7FC87E00122FF2122E29900288EFA6
:10225000F06003E0FF227BFF7A1C791E12136B7F74
:10226000017E00122FF2122C99900288EFF0600389
:10227000E0FF22900080E020E4E57F647E00122FE2
:10228000F27D14122E99900288EFF07D10122E9993
:10229000900288EFF06003E0FF22122C99900288F0
:1022A000EFF06003E0FF22900080E0540170139093
:1022B0000287E075F00CA424C3F582E43402F583B0
:1022C000E4F0900287E0FF120E5D900288EFF0606C
:1022D00003E0FF227F0112305B022375900082E051
:1022E00030E13D900287E0FF7D11122E9E7BFF7A48
:1022F0001C793B12136B122E29900288EFF06003B9
:10230000E0FF227F017E00122FF2122C99900288AA
:10231000EFF06003E0FF22900080E020E4E58055CC
:10232000900080E05401704D900287E0FF75F00C42
:10233000A424C3F582E43402F583E0C394017480DD
:10234000948040117BFF7A1C79519002A9E4F0A39C
:10235000EFF012136B900287E0FF75F00CA424C31A
:10236000F582E43402F583E4F0900082E030E00589
:102370007D10122E9E900287E004F00221867F00DD
:01238000223A
:102E6100900300E0C394037480948040289003038E
:102E7100E064097020FF122B91122180EF60117B19
:102E8100FF7A1C796D9002A9E4F0A3EFF012136BA5
:072E91007F0112305B7F009E
:012E98002217
:102AB900E4F9900303E06409704B900300E0C394C8
:102AC9000374809480403E7D0190030CE0FEEDD3B9
:102AD9009E5032ED75F00CA424C6F582E43402F55B
:102AE90083E06F701DED75F00CA424C3F582E43406
:102AF90002F583E0C39403748094804005E9FEEDF8
:102B0900FF220D80C4900303E06F7015900300E06D
:102B1900C39403748094804008CFE9CFEF7F00FE0F
:052B2900227EFF7FFF8A
:012B2E002284
:0B265D00900287EBF0A3EAF0A3E9F085
:10266800C8748AC8CC7402CCCD7401CD7BFF7A1CA7
:1026780079887E007F08121735900287E0FBA3E077
:10268800FAA3E0F9900001121774FF12175B4FFFCD
:102698009000031217744FFF9000041217744FFF35
:1026A8009000051217744FFF9000061217744FFF21
:1026B80090000712177470047E0180027E00EE4FAE
:1026C800FF900287E0FBA3E0FAA3E0F99000021272
:1026D8001774645370047E0180027E00EE5F7003FD
:1026E80002276E300B359000407421F090029274EE
:1026F80001F0900292E064096021E0FF248AF582EB
:10270800E43402F583E0FE74402FF582E43400F5EA
:1027180083EEF0900292E004F080D7200B2EE49034
:102728000292F0900292E064086021E0FF248AF5AA
:1027380082E43402F583E0FE74402FF582E434002D
:10274800F583EEF0900292E004F080D790029A743C
:1027580001F0A37402F0A37493121CA0900292EFEC
:08276800F06003E0FF227F0096
:012770002246
:102D6C00C2EA75E28053D17FE4F5E375EB48CE748B
:102D7C0000CECF7400CF8EE58FE4CE7400CECF742E
:102D8C0040CF8EE78FE6F5D4F5D675E28875D8FF7F
:0F2D9C00FFEF640260061230850F80F575E103CA
:012DAB002205
:030000000229AC26
:0C29AC00787FE4F6D8FD7581210229F344
:10166500E709F608DFFA8046E709F208DFFA803E67
:1016750088828C83E709F0A3DFFA8032E309F60854
:10168500DFFA8078E309F208DFFA807088828C83BC
:10169500E309F0A3DFFA806489828A83E0A3F60870
:1016A500DFFA805889828A83E0A3F208DFFA804C4A
:1016B50080D280FA80C680D4806980F28033801021
:1016C50080A680EA809A80A880DA80E280CA80338A
:1016D50089828A83ECFAE493A3C8C582C8CCC58302
:1016E500CCF0A3C8C582C8CCC583CCDFE9DEE780D2
:1016F5000D89828A83E493A3F608DFF9ECFAA9F051
:10170500EDFB2289828A83ECFAE0A3C8C582C8CCA6
:10171500C583CCF0A3C8C582C8CCC583CCDFEADEBF
:10172500E880DB89828A83E493A3F208DFF980CC21
:1017350088F0EF60010E4E60C388F0ED2402B4041A
:101745000050B9F582EB2402B4040050AF232345C1
:0617550082239016B5731B
:10175B00BB010689828A83E0225002E722BBFE028C
:09176B00E32289828A83E49322BF
:10177400BB010CE58229F582E5833AF583E022502A
:1017840006E92582F8E622BBFE06E92582F8E22274
:0D179400E58229F582E5833AF583E493228E
:1017A100BB010689828A83F0225002F722BBFE0127
:0217B100F32221
:1017B300C5F0F8A3E028F0C5F0F8E58215827002C1
:0617C3001583E038F0225E
:1017C900BB010789828A830217B3500B09C5F02729
:1017D900F7C5F01937F722BBFE0D09F8E325F0F339
:1017E900C5F019E338F322F889828A8374019325B5
:0817F900F0C5F0F8E49338227A
:10180100BB010A89828A83F0E5F0A3F0225006F732
:0F18110009A7F01922BBFE06F3E5F009F319222F
:1018200075F008758200EF2FFFEE33FECD33CDCC7F
:1018300033CCC58233C5829BED9AEC99E582984002
:101840000CF582EE9BFEED9AFDEC99FC0FD5F0D6DF
:10185000E4CEFBE4CDFAE4CCF9A88222B800C1B909
:101860000059BA002DEC8BF084CFCECDFCE5F0CB47
:10187000F97818EF2FFFEE33FEED33FDEC33FCEB80
:1018800033FB10D703994004EB99FB0FD8E5E4F93B
:10189000FA227818EF2FFFEE33FEED33FDEC33FC28
:1018A000C933C910D7059BE99A4007EC9BFCE99A1C
:1018B000F90FD8E0E4C9FAE4CCFB2275F010EF2F61
:1018C000FFEE33FEED33FDCC33CCC833C810D70761
:1018D0009BEC9AE899400AED9BFDEC9AFCE899F89C
:0E18E0000FD5F0DAE4CDFBE4CCFAE4C8F9222F
:0C18EE00ECF0A3EDF0A3EEF0A3EFF0226D
:1018FA00A8828583F0D083D082121911121911128D
:10190A001911121911E473E493A3C583C5F0C583B1
:10191A00C8C582C8F0A3C583C5F0C583C8C582C837
:01192A00229A
:0C192B00A42582F582E5F03583F58322C7
:10130000E50824A9F582E43402F583E0050822907B
:1013100002A63007039002A9E475F00112196302D6
:10132000175B2000E97F2ED2008018EF540F249025
:10133000D43440D4FF30040BEF24BFB41A00500360
:101340002461FFE50960021509050CE50C70020532
:101350000B30070E9002A6E475F001121963EF023C
:1013600017A1022F8D7403D2078003E4C207F5088A
:101370009002A612197AE4F509F50BF50CE509605F
:10138000077F2012134380F5750AFFC201C200C215
:1013900002C203C205C206C20812130FFF700D304D
:1013A00007057F00121354AF0CAE0B22B4255FC2A9
:1013B000D5C20412130FFF24D0B40A00501A75F0DE
:1013C0000A780930D50508B6FF0106C6A426F6201E
:1013D000D5047002D20380D924CFB41A00EF500490
:1013E000C2E5D204021555D20180C6D20080C0D217
:1013F0000280BCD2D580BAD20580B47F20121343BC
:101400002002077401B5090040F1121300FF121306
:101410004302137DD208D2068095121300FB1213EB
:1014200000FA121300F94A4B700679267A167BFFF0
:1014300020022EE509602A7E008E82758300121735
:101440007460060EEE650A70F0C2D5EBC0E0EAC02B
:10145000E0E9C0E0EE12159CD0E0F9D0E0FAD0E06F
:10146000FB12175BFF60AAEBC0E0EAC0E0E9C0E056
:10147000121343D0E02401F9D0E03400FAD0E0FBAD
:10148000E50A0460DCD50AD980877BFF7A15799854
:10149000D202809C791080027908C206C2088008B6
:1014A000D2D5790A8004790AC2D5E50A047002F51A
:1014B0000AE4FAFDFEFF121300FC7B082001131260
:1014C0001300FD7B1030000A121300FE121300FF00
:1014D0007B20EC3382D592D55013C3E43000069FB5
:1014E000FFE49EFEE42001039DFDE49CFCE4CBF8B8
:1014F000C201EC700CCFCECDCCE824F8F870F380AC
:1015000017C3EF33FFEE33FEED33FDEC33FCEB336B
:10151000FB994002FB0FD8E9EB300105F8D0E0C49D
:1015200048B201C0E00AEC4D4E4F78207B0070C2FB
:10153000EAB50A0040BCC0E012159ED0F0D0E02011
:101540000104C4C0E0C4B201C0F012132CD0F0D525
:10155000F0EB02137D121983141A5314945813EBF1
:101560004C13E74214984F14A04414A049140043AC
:0815700014A655148A46148AE2
:1015780045148A4716465013EF2D13F32E14162BD5
:1015880013F723141420162F2A13AF480000140E43
:101598003F3F3F00790AA2D5200314300509B9104E
:1015A800020404B9080104A2D5200602500104204F
:1015B80002689202B509005034C0E07F2030031958
:1015C8007F30A20272067205500F1215F5C202C2D0
:1015D80006C205C2087F30800F300503E9C0E0125B
:1015E8001343300503D0E0F9D0E0B509CC30051736
:1015F8007F30B9100C1213437F583004077F78806E
:1016080003B908031213433002057F2D0213437FE9
:10161800202008F87F2B2006F322920280CF286E24
:10162800756C6C2900D2011213003001F8C20178E0
:101638000930D50108F60213AF2D5043495812134B
:10164800002403B405004001E490164193121334BA
:0D165800743A121334D2037509040214947D
:10193700EF4E6012EF60010EEDBB010B89828A83C7
:10194700F0A3DFFCDEFA2289F05007F709DFFCA9D4
:0C195700F022BBFEFCF309DFFCA9F0222B
:1029B800020750E493A3F8E493A34003F68001F2DE
:1029C80008DFF48029E493A3F85407240CC8C33320
:1029D800C4540F4420C8834004F456800146F6DFEF
:1029E800E4800B010204081020408090308DE47EC2
:1029F800019360BCA3FF543F30E509541FFEE493E4
:102A0800A360010ECF54C025E060A840B8E493A3AA
:102A1800FAE493A3F8E493A3C8C582C8CAC583CAD5
:102A2800F0A3C8C582C8CAC583CADFE9DEE780BE8D
:01309100003E
:10196300F8E0FBA3A3E0F925F0F0E582158270020D
:071973001583E0FA38F022B1
:09197A00EBF0A3EAF0A3E9F0226E
:10198300D083D082F8E4937012740193700DA3A3F3
:1019930093F8740193F5828883E473740293686007
:0619A300EFA3A3A380DF07
:102F8D00EFB40A07740D122F98740A309811A8998E
:102F9D00B8130CC2983098FDA899C298B811F630A4
:072FAD0099FDC299F599227C
:00000001FF
